:1000000080220020A1CE00000D5801008DCE0000FE
:100010008DCE00008DCE00008DCE000000000000CF
:1000200000000000000000000000000055D00000AB
:100030008DCE000000000000B5CF00008DCE000086
:10004000F9D20000F9D20000F9D20000F9D2000084
:10005000F9D20000F9D20000F9D20000F9D2000074
:10006000F9D20000F9D20000F9D20000F9D2000064
:10007000F9D20000F9D20000F9D20000F9D2000054
:10008000F9D20000F9D20000F9D20000F9D2000044
:10009000F9D20000F9D20000F9D20000F9D2000034
:1000A000F9D20000F9D20000F9D20000F9D2000024
:1000B000F9D20000F9D20000F9D20000F9D2000014
:1000C000F9D20000F9D20000F9D20000F9D2000004
:1000D000F9D20000F9D20000F9D20000F9D20000F4
:1000E000F9D20000F9D20000F9D20000F9D20000E4
:1000F000F9D20000F9D20000F9D20000F9D20000D4
:1001000081F0004102E000BF83F0004330B54FEAC8
:1001100041044FEA430594EA050F08BF90EA020F35
:100120001FBF54EA000C55EA020C7FEA645C7FEAC8
:10013000655C00F0E2804FEA5454D4EB5555B8BFEB
:100140006D420CDD2C4480EA020281EA030382EA5C
:10015000000083EA010180EA020281EA0303362DEE
:1001600088BF30BD11F0004F4FEA01314FF4801CC1
:100170004CEA113102D0404261EB410113F0004FD3
:100180004FEA03334CEA133302D0524263EB43038A
:1001900094EA050F00F0A780A4F10104D5F1200E28
:1001A0000DDB02FA0EFC22FA05F2801841F1000183
:1001B00003FA0EF2801843FA05F359410EE0A5F157
:1001C00020050EF1200E012A03FA0EFC28BF4CF088
:1001D000020C43FA05F3C01851EBE37101F000453E
:1001E00007D54FF0000EDCF1000C7EEB00006EEB4B
:1001F0000101B1F5801F1BD3B1F5001F0CD34908D5
:100200005FEA30004FEA3C0C04F101044FEA44522B
:1002100012F5800F80F09A80BCF1004F08BF5FEAB2
:10022000500C50F1000041EB045141EA050130BD92
:100230005FEA4C0C404141EB0101013C28BFB1F5A4
:10024000801FE9D291F0000F04BF01460020B1FAEF
:1002500081F308BF2033A3F10B03B3F120020CDAC2
:100260000C3208DD02F1140CC2F10C0201FA0CF0A0
:1002700021FA02F10CE002F11402D8BFC2F1200C05
:1002800001FA02F120FA0CFCDCBF41EA0C019040BB
:10029000E41AA2BF01EB0451294330BD6FEA040404
:1002A0001F3C1CDA0C340EDC04F11404C4F12002EF
:1002B00020FA04F001FA02F340EA030021FA04F301
:1002C00045EA030130BDC4F10C04C4F1200220FA58
:1002D00002F001FA04F340EA0300294630BD21FA96
:1002E00004F0294630BD94F0000F83F4801306BF5C
:1002F00081F480110134013D4EE77FEA645C18BF50
:100300007FEA655C29D094EA050F08BF90EA020FE6
:1003100005D054EA000C04BF1946104630BD91EADE
:10032000030F1EBF0021002030BD5FEA545C05D1E1
:100330004000494128BF41F0004130BD14F5800420
:100340003CBF01F5801130BD01F0004545F0FE4194
:1003500041F470014FF0000030BD7FEA645C1ABFC9
:10036000194610467FEA655C1CBF0B46024650EA00
:10037000013406BF52EA033591EA030F41F400212C
:1003800030BD00BF90F0000F04BF0021704730B5B2
:100390004FF4806404F132044FF000054FF0000187
:1003A00050E700BF90F0000F04BF0021704730B548
:1003B0004FF4806404F1320410F0004548BF40421D
:1003C0004FF000013EE700BF42004FEAE2014FEA72
:1003D00031014FEA02701FBF12F07F4393F07F4F4D
:1003E00081F06051704732F07F4208BF704793F050
:1003F0007F4F04BF41F40021704730B54FF4607463
:1004000001F0004521F000411CE700BF50EA010265
:1004100008BF704730B54FF000050AE050EA01020E
:1004200008BF704730B511F0004502D5404261EB7E
:1004300041014FF4806404F132045FEA915C3FF4BF
:10044000D8AE4FF003025FEADC0C18BF03325FEA5C
:10045000DC0C18BF033202EBDC02C2F1200300FA0D
:1004600003FC20FA02F001FA03FE40EA0E0021FA32
:1004700002F11444BDE600BF53B94AB9002908BFD0
:1004800000281CBF4FF0FF314FF0FF3000F00CB8D8
:10049000ADF1080C6DE904CE00F010F8DDF804E0D1
:1004A000DDE9022304B07047704700BF034613F82C
:1004B000012B002AFBD1181A013870472DE9F047AB
:1004C00086468C460846089E154674461946002BFB
:1004D00040F0C2808542B2FA82F245D94AB1C2F1F7
:1004E000200300FA02FC2EFA03F3954043EA0C0CB9
:1004F00094404FEA154EA8B2BCFBFEF8230C0EFB4D
:1005000018CC08FB00F943EA0C43994528D9EB18AD
:1005100008F1FF3704D2994502D9A8F102072B440C
:10052000A3EB0903A4B2B3FBFEFC0EFB1C330CFBD4
:1005300000F044EA0344A04214D92C190CF1FF3313
:1005400004D2A04202D9ACF102032C44241A43EA9B
:1005500007401EB1D440002334607360BDE8F087CB
:100560004746DDE76346F1E792BB431B01214FEAB3
:10057000154EAFB2B3FBFEFC200C0EFB1C330CFB84
:1005800007F840EA0343984562D9EB180CF1FF30B5
:1005900004D2984502D9ACF102002B44A3EB080326
:1005A000A4B2B3FBFEFC0EFB1C330CFB07F744EAC2
:1005B0000344A7424ED92C190CF1FF3304D2A742B1
:1005C00002D9ACF102032C44E41B43EA0040C0E72B
:1005D000C2F1200320FA03F1954090402EFA03F374
:1005E00003434FEA154EAFB2B1FBFEFC0EFB1C10ED
:1005F000190C0CFB07F841EA0041884504FA02F4A3
:1006000022D969180CF1FF3004D2884502D9ACF127
:1006100002002944A1EB08019BB2B1FBFEFC0EFBDA
:100620001C110CFB07F743EA01439F420ED9EB185C
:100630000CF1FF3104D29F4202D9ACF102012B44EC
:10064000DB1B41EA004192E76046E3E76146F7E7DA
:100650006046A3E76346B7E7834206D916B900218F
:1006600008467BE7C6E900E0F9E7B3FA83F78FB9FC
:10067000834201D3724508D8BEEB020460EB03034A
:1006800001209C461EB9002168E73846FAE7C6E912
:10069000004CF8E7C7F1200CBB4022FA0CF41C43D5
:1006A0002EFA0CF120FA0CF3B84001434FEA14493A
:1006B0000EFA07F5B3FBF9F81FFA84FE09FB1830B0
:1006C0000B0C08FB0EFA43EA00439A4502FA07F2C4
:1006D00040D9E31808F1FF3004D29A4502D9A8F1B5
:1006E00002002344A3EB0A0389B2B3FBF9F809FB28
:1006F000183308FB0EFE41EA03418E452CD96118E0
:1007000008F1FF3304D28E4502D9A8F10203214437
:1007100043EA0040A0FB0298A1EB0E014145CE4602
:10072000434602D306D14D4504D2B9EB020E68EB25
:1007300004030138002EA6D0B5EB0E0261EB0301D5
:1007400001FA0CFC22FA07F34CEA0303F940C6E96C
:10075000003198E74046C5E74346D9E72DE9F04721
:1007600084B0044683685D69D1F808A00B680393E0
:100770004A6804AB43F8082D6F6B00224F21B8473D
:10078000074618B1384604B0BDE8F087A3685A6937
:1007900094F94C30002B3CDB576B01AB0022572106
:1007A0002046B847A8BB9DF807209DF806301B04DB
:1007B00043EA02639DF8042013439DF8052043EAB1
:1007C0000223BAF1000F31D103F5783303F520731A
:1007D00003934FF0010AA3685F690DF10203002241
:1007E0007B2120467E6BB04794F94D30012B4ED0D3
:1007F00094F94C30012202FA03F3BDF8022022EAF8
:10080000030204AB23F80E2D7F6B00226B212046E0
:10081000B847BAF1000F4AD16D6B00231A461F2169
:100820002046A8470746002850D1ABE7039AD31AC1
:1008300098464FEAE3794FEA4912580142EAD361F8
:10084000C01A61EB09014B0243EAD053420212EB9A
:10085000080043EB09018B0143EA90638201121AFD
:1008600063EB010316461F46314A002316EB0800CE
:1008700047EB0901FFF700FEB0F57F7FABDDA36812
:100880005F69B0F57F70A8D014F07FFBA5E794F9FD
:100890004C3001229A40BDF802301A4304AB23F8D1
:1008A0000E2D7F6B00226B212046B847B1E76E6B9F
:1008B00003AB002205212046B047074630B96D6BD7
:1008C000002301221F212046A847074694F94C30F7
:1008D000002BFFF657AFA3685D696E6B01AB00227A
:1008E0007B212046B04794F94D308BB194F94C30C0
:1008F000012202FA03F3BDF8042022EA030204AB4A
:1009000023F80C2D6D6B00226B212046A84739E798
:1009100094F94C3001229A40BDF804301A4304ABDC
:1009200023F80C2D6D6B00226B212046A84729E788
:100930000098E00EF0B583B00368002B37D01F4A53
:1009400013601E4B1B6842681A6082685A6000225E
:100950008DF803201B681C6801AB04220DF1030114
:100960000120A0479DF807309DF80610090441EAD0
:1009700003619DF8043019439DF8053041EA0321D5
:100980000F4A104B9A4216D20C4B1F6813464FF079
:10099000FF3000260B4D1A684A405C68224204BFB3
:1009A000BB6030461C33AB42F5D303B0F0BD034B04
:1009B000054A1A60C5E74FF0FF30F6E7280500202A
:1009C0004C7E0100A07E01002C05002008B5044BE0
:1009D0001B689A681269526A01461846904708BD1A
:1009E0002805002008B5044B1B689A681269126834
:1009F00001461846904708BD2805002010B582B072
:100A000002AB23F8020D054A106882681269D46AA5
:100A100000221B21A04702B010BD00BF2805002006
:100A200010B582B002AB23F8020D054A1068826847
:100A30001269D46A00221D21A04702B010BD00BF78
:100A40002805002038B5054B1C68A3681B695D6844
:100A500013460A4601462046A84738BD280500200F
:100A600038B5054B1C68A3681B699D6813460A4688
:100A700001462046A84738BD2805002010B582B0A1
:100A800002AB03F8010D054A106882681269D46A46
:100A900000220421A04702B010BD00BF280500209D
:100AA00010B582B002AB43F8040D054A10688268A5
:100AB0001269D46A00220521A04702B010BD00BF10
:100AC0002805002038B5054B1C68A3681B69DD6A42
:100AD0000346002232212046A84738BD28050020C1
:100AE00008B5044B1B689A6812695269014618469A
:100AF000904708BD2805002010B5054B186883688D
:100B00001B69DC6A00231A460321A04710BD00BF01
:100B10002805002008B5044B1B689A681269126A00
:100B200001461846904708BD2805002010B582B040
:100B300002AB43F8040D054A106882681269D46A52
:100B400000225121A04702B010BD00BF280500209F
:100B500000290DDD10B4431E19441046054C13F84E
:100B6000012F5040205C8B42F9D15DF8044B704757
:100B700010467047486C010038B5054B1C68A368E7
:100B80001B69DD6813460A4601462046A84738BD62
:100B90002805002010B582B002AB43F8040D054AC9
:100BA000106882681269D46A00227421A04702B0DA
:100BB00010BD00BF2805002010B582B0002202AB96
:100BC00043F8042D0449086881680969CC6A7621D4
:100BD000A047019802B010BD2805002010B582B0D2
:100BE000002202AB23F8022D0549086881680969D3
:100BF000CC6A7A21A047BDF8060002B010BD00BF44
:100C0000280500209829024818BF0020704700BF1F
:100C1000406E010000B583B0036DDB7B012B0BD070
:100C2000032B10D10091052304224FF4F01111F091
:100C30001CFD03B05DF804FB00910523002205496B
:100C400011F013FDF5E7009105230022642111F056
:100C50000CFDEEE70400180010B50446036DDB7BC5
:100C6000012B13D0032B1DD1F0230022124912F0C7
:100C7000D3F800224FF4F011204611F016FD236D39
:100C80001A7BA2B1C0F30900588410BD0F230022C3
:100C9000094912F0C1F800224FF4C011204611F0AA
:100CA00004FDECE700224C2111F0FFFCE7E700F027
:100CB0007F005884E9E700BF2400010038B50446EE
:100CC00000231A464FF4202112F0C5F800231A46DB
:100CD0000849204612F0A0F8074D00231A4629467D
:100CE000204612F099F8022300222946204612F0ED
:100CF00093F838BD14000A0004000A0008B5012961
:100D000002D0052907D008BD41F62203002205497B
:100D100012F0A1F8F7E74FF400730022014912F036
:100D20009AF8F0E70400110070B504460E460C4D29
:100D300001230022294612F08EF833460022094989
:100D4000204612F088F8022300222946204612F09D
:100D500082F800220449204611F091FC70BD00BFCA
:100D600008000B0004000B0010000B0038B504460F
:100D70000B4600220A4912F06EF80A4D8823002221
:100D80002946204612F048F800231A4629462046F4
:100D900012F042F800220449204611F098FC38BDB8
:100DA0000C000A0004000A0008000A0070B504469E
:100DB0000B461546B1F5807F34BF00262026002261
:100DC0000B4912F048F82B4600220A49204612F03F
:100DD00023F8094D46F0900300222946204612F0E0
:100DE0001BF800231A462946204612F015F870BD5C
:100DF0000C000A0010000A0004000A0070B5044646
:100E00000D461646002240F20B11FFF7CFFF4FF4BC
:100E100082712046FFF7AAFF00F01F024FF4827193
:100E20002046FFF7C3FF236D5A8A15435D82236D69
:100E30005B8A00224FF42021204612F00CF8334642
:100E400000220249204611F0E7FF70BD14000A009D
:100E5000F8B5044600224FF4F81111F038FC0546AD
:100E600000224421204611F00AFC0646236D002290
:100E70005A8483F82420DA611A849A62236D9C6272
:100E8000236DD861226DD37D03F00303032B79D04A
:100E900016F4806F05D092F8243043F0040382F8F2
:100EA000243015F0800F74D115F0010F40F0A380AD
:100EB00015F0400F0BD0636A13B1206D1C309847BA
:100EC0004FF4C07302224421204611F0C4FF15F0F4
:100ED000080F00F0EA80236D002283F82420236DA0
:100EE000DB7B002B40F09580236DDE6116F4802FB4
:100EF00000F0A980226D92F8243043F0080382F8B4
:100F000024304FF4802716F0805F08D0226D92F8CD
:100F1000243043F0100382F8243047F0805716F451
:100F2000005F06D0226DD37D03F00303032B00F096
:100F3000968016F4804F40F09E8047F4DE430022F6
:100F40004421204611F0BCFF206D438C002B40F063
:100F5000A180C37D03F00303032B00F09B80C369D2
:100F600023F49043C361226DD36943F48053D3616A
:100F7000E36913B1206D1C309847236D002283F87C
:100F800024208BE010F4005F1CBF45F00805EDB293
:100F90007EE7276D00224821204611F086FB388429
:100FA000236D9A7D1AB1DA6912F0040F03D11B8CFC
:100FB00003F460638BB1042300224421204611F026
:100FC0002BFF4FF4606300224821204611F043FFBD
:100FD000236A13B1206D1C309847236D1B8C13F4CA
:100FE000807F3FF461AF4FF4807300224821204698
:100FF00011F031FF58E7F82300224421204611F078
:101000000BFF2369002B3FF453AF206D1C30984732
:101010004EE73B49204611F05AFB236DDB7B032B47
:1010200008BFC0F3071010F0010F18BF46F4804648
:1010300010F0020F18BF46F4005610F0040F18BF4E
:1010400046F4806650E716F4806F1FBF226D92F859
:10105000243043F0040382F82430002753E792F849
:10106000243043F0020382F82430236D00225A8496
:1010700047F4004761E72046FFF7EEFD10F4004F0C
:101080003FF45BAF226D92F8243043F0010382F805
:10109000243052E763690BB11C309847236DDB7B2A
:1010A00053B9236D002283F8242015F0100F07D1C7
:1010B00015F0200F14D1F8BD204611F0EFFEF0E737
:1010C000104B00224421204611F0FAFEE36913B1CF
:1010D000206D1C309847236D002283F82420E7E719
:1010E000094B00224421204611F0EAFEA36913B106
:1010F000206D1C309847236D002283F82420DAE706
:101100002400010000B405340004221038B5044660
:1011100089B900222C2111F0B2FA054601224FF4C0
:101120006021204611F0D3FA2B1A00222C212046F0
:1011300011F0C6FE38BD00222C2111F0A0FA0546A0
:1011400001220549204611F0C2FA2B1A00222C2157
:10115000204611F0B5FEEDE70400010070B506462B
:101160000C46084D0022294611F089FA000D0005B1
:10117000C4F31303034300222946304611F0A0FEB6
:1011800070BD00BF0800010038B505460C460022BE
:101190004FF4A02111F073FA0B4B034014F0010F30
:1011A00018BF43F4802314F0020F18BF43F4104318
:1011B00014F0040F18BF43F0120300224FF4A021D3
:1011C000284611F07DFE38BDC00FE0FF38B505465A
:1011D0000C460B6800220B4911F072FE6368002276
:1011E0000949284611F06CFEA368002207492846E9
:1011F00011F066FEE36800220549284611F060FE02
:1012000038BD00BF0C0002001000020014000200F4
:101210001800020038B505460C460B6800220B4941
:1012200011F04EFE636800220949284611F048FE7D
:10123000A36800220749284611F042FEE368002215
:101240000549284611F03CFE38BD00BF1C000200D5
:101250002000020024000200280002002DE9F047CF
:101260000446052940D0264D2E46264FDFF8D8806B
:10127000DFF8D890DFF8D8A0234B0022234920467E
:1012800011F01EFE534600222149204611F018FE9F
:101290004B4600221F49204611F012FE4346002211
:1012A0001D49204611F00CFE3B4600221B492046FA
:1012B00011F006FE334600221949204611F000FEC7
:1012C0002B4600221749204611F0FAFD164B00224A
:1012D0001649204611F0F4FD154B00221549204611
:1012E00011F0EEFDBDE8F087134D144E144FDFF8FA
:1012F0006480DFF86490DFF864A0124BBDE700BFA4
:10130000B5AF02007DAF0200FEA802003800030066
:101310003C000300400003004400030048000300B9
:101320004C00030050000300400200101C000300AA
:1013300089A46D1B20000300F5CF0100B5CF01008B
:1013400036CF0100FDC001003EAF0200FEA5020045
:1013500036AC02007EC70100BEC601003EC40100DB
:1013600008B500231A46024911F0AAFD08BD00BFC6
:101370000400070038B504460D4600231A460A4902
:1013800011F09EFD00231A464FF4E021204611F093
:1013900097FD05B938BD4FF0E053002203492046C0
:1013A00011F08EFDF6E700BF4800070014000700AB
:1013B000F0B583B0046DE47B032C0CBF4FF4981C94
:1013C0004FF4901C9C18B4F5806F19DA1D46164630
:1013D0000F4604467F2B15D94FEA1C4300220D49C6
:1013E00011F06EFD2B4600220B49204611F068FDDE
:1013F0000097334600224FF4E811204611F035F9EA
:1014000003B0F0BD009113462A46614611F02DF954
:10141000F6E700BF04001F0008001F00F0B583B00E
:101420005C18B4F5806F24DA1C4617460E46054654
:101430007F2B15D9142300220F4911F041FD2346BB
:1014400000220E49284611F03BFD0097334600224A
:101450004FF4E811284611F0D4FC002003B0F0BD91
:1014600000920B4622464FF4A01111F0CAFC002056
:10147000F4E74FF0FF30F1E704001F0008001F0001
:1014800000B583B0052904D009290BD003B05DF85D
:1014900004FB402300936FF400530022064911F02F
:1014A00088FDF3E74FF4015300936FF400530022DB
:1014B000014911F07EFDE9E708000B0070B582B02C
:1014C00004460E46134D4FF0082300934FF0FF33B0
:1014D0000022294611F06DFD4FF0601300934FF08C
:1014E000FF3300222946204611F063FD0A4B00938A
:1014F0004FF0FF3300224FF4E021204611F059FD58
:101500000EB902B070BD054B00220549204611F00E
:10151000D7FCF6E748000700003C0002001101017B
:101520001400070000B583B0054B00934FF0FF3364
:101530000022044911F03DFD03B05DF804FB00BF3B
:10154000003C0002040007002DE9F04383B004468C
:101550000D461746564E0022314611F090F881464E
:101560004FF4704300934FF0FF3300223146204682
:1015700011F01FFDDFF83C81182300224146204670
:1015800011F069FC2521204611F075FC022120464E
:1015900011F071FC4FF4FE71204611F06CFCF9B2B1
:1015A00041F48071204611F066FC4FF480712046B2
:1015B00011F061FC0021204611F05DFC0221204663
:1015C00011F059FC4FF4E071204611F054FCE9B2DF
:1015D00041F48071204611F04EFCC5F3072141F41F
:1015E0008071204611F047FCC5F3074141F480713A
:1015F000204611F040FC290E41F48071204611F084
:101600003AFC0021204611F036FC3A21204611F028
:1016100032FC40F2FF11204611F02DFC4FF4857191
:10162000204611F028FC0021204611F024FC3A212C
:10163000204611F020FC40F20111204611F01BFC65
:10164000022300224FF43021204611F004FC002335
:101650001A464FF43021204611F0FDFB022013F012
:1016600081FC3A21204611F006FC4FF4817120469E
:1016700011F001FC022300224FF43021204611F02A
:10168000EAFB00231A464FF43021204611F0E3FB19
:1016900000231A464146204611F0DDFB4B4600224E
:1016A0003146204611F00CFC03B0BDE8F08300BFCA
:1016B0004400070008000B0010B582B004467F2AE2
:1016C00012D9803241EAC32141EA024100910C4B18
:1016D0000022242111F06DFC00224FF4002120464D
:1016E00010F0F5FF02B010BD41EAC32141EA02410A
:1016F0000091034B0022242111F05BFCF2E700BFB4
:1017000000F400FC30B583B004460D4611F0010F23
:1017100015D000230093EF2302224FF4602111F033
:10172000EFFC236D1D76236D1B7E5B0810D06B08CC
:1017300000220E49204611F06FFB03B030BD10238C
:101740000093FF2302224FF4602111F0D9FCE8E757
:1017500001230093FF2300220449204611F0D0FC0E
:10176000226D137E43F002031376E6E728000100A2
:1017700070B582B004460D460121FFF7BFFA002183
:101780002046FFF79BFE2046FFF7CCFEC5F30B0378
:1017900000221549204611F05EFB03230093FF232E
:1017A00000221249204611F0ABFC104E00252A46BB
:1017B0003146204610F08BFF10F0010FF7D1204684
:1017C000FFF7CEFD00212046FFF7D4FD052120467E
:1017D000FFF794FA00220649204610F078FF00F047
:1017E0003F0002B070BD00BF1C00080010000800E0
:1017F0001C00070038B505460C46B1F8051049B184
:10180000FFF7B6FFD4F8013000220549284611F051
:1018100057FB38BD23780022024911F0FDFAF1E7A9
:101820000C0001001C00070030B583B004460D46D3
:1018300010230093FF230022064911F061FC2B4680
:10184000022D38BF022300222C21204611F038FB44
:1018500003B030BD24000F0030B583B00446012929
:101860001DD0022930D001230093FF2300222649F6
:1018700011F046FC254D4FF4000300936FF4807384
:1018800000222946204611F094FB002300937F2379
:1018900002222946204611F033FC03B030BD052159
:1018A000FFF72CFA4FF4817300934FF0FF330022BF
:1018B0001749204611F07DFB01220092FF231349B6
:1018C000204611F01DFCE8E703230093FF230022CC
:1018D0000D4911F015FC0D4D4FF4000300936FF40A
:1018E000807300222946204611F063FB00230093F9
:1018F0007F2302222946204611F002FC05212046C2
:10190000FFF7FCF9C9E700BF04001100080011004F
:10191000080009002DE9F04182B00546294C2A4B08
:101920000022214611F0CCFA10230093FF2300225D
:101930002146284611F0E4FB03244FF01408234FFE
:101940000026404613F021FB32463946284610F067
:10195000BEFE012834D0631E13F0FF04F1D16FF0F6
:101960000204184E00231A463146284611F054FA54
:10197000012300221549284611F04EFA0123009355
:10198000FF2302223146284611F0BAFB00221049FB
:10199000284610F074FE6FF06043984208BF6FF065
:1019A000030400220B49284610F069FE6FF06043E3
:1019B000984214BF20466FF0040002B0BDE8F081E9
:1019C0000024CEE70C000400010002002000040007
:1019D000140004001C00040010B582B004464FF44B
:1019E000C07300934FF6FF730022074911F0CFFB3D
:1019F000236D1B7A00934FF6E073002203492046C3
:101A000011F0C5FB02B010BD08000B001F00110053
:101A100030B583B0044611F0010F1FD00D464FF4CE
:101A2000107300936FF47C6300224FF4A02111F037
:101A3000C0FA4FF4040300934FF0FF33002218491B
:101A4000204611F0B6FA15F0020F1AD14FF4887340
:101A500000221449204611F033FA10E000250095C9
:101A60006FF47C632A464FF4A02111F0A2FA00958E
:101A70004FF6FF632A460B49204611F088FB03B05E
:101A800030BD084D084B00222946204611F018FAB7
:101A90004FF4887300222946204611F011FAEEE730
:101AA000040011001600110010010F00F0B583B002
:101AB0000446012909D0142013F067FA2046FFF7E5
:101AC00029FF0546284603B0F0BD0F4E00223146DF
:101AD00010F0EBFD074640F2051300934FF6FF733D
:101AE00000223146204611F052FB142013F04DFA2B
:101AF0002046FFF70FFF0546002200923B46314685
:101B0000204611F044FBDDE74800070000B583B034
:101B1000012A09D0CB43002200929BB2064911F062
:101B200036FB03B05DF804FB00914FF6FF73002213
:101B3000014911F02CFBF4E70C000500F0B583B06F
:101B400004460F4616461D4648F2400300934FF6E2
:101B5000FF730022184911F01AFBAA1943F201037E
:101B60009A4215DC7F2D1DD91523002213492046EA
:101B700011F0A6F92B4600221149204611F0A0F9D8
:101B80000097334600224FF4E811204610F06DFD17
:101B90000022009247F6BF730749204611F0F7FA7A
:101BA00003B0F0BD009733462A464FF4A8112046F3
:101BB00010F05BFDECE700BF0400110004001F0003
:101BC00008001F0070B506460C4615460E4B022253
:101BD0000E4911F075F90F2DA8BF0F25631E032BB9
:101BE00028BF04241023234100220949304611F064
:101BF00067F9631E9B0005FA03F30022054930468E
:101C000011F05EF970BD00BF7408D2001000110021
:101C100028000700180008002DE9F04F83B00446A3
:101C20000D4691F800900B79182B14D8CF78182F07
:101C300094BF00270127FFB2EB79012B0CBF1021C5
:101C400000216B78013B062B10D8DFE803F0060F6C
:101C50000F120C0F09000127EDE74FF0400A0AE0D0
:101C60004FF0480A07E04FF0800A04E04FF4807A12
:101C700001E04FF0200A226D538A23F0E0035382E3
:101C8000236DEA791A732E7BB31C01269E401FFA3E
:101C900086F8226DC74B03FB08F3DB0B9382236DA1
:101CA000EA7ADA752B7A5B0103F020036A7B43EA58
:101CB0000243EA7A120302F4304213430B430093C7
:101CC000BD4B00221021204611F073F9002F40F087
:101CD000F680EB7AF3B16B7B012B40F21C812A7BFF
:101CE000B64B33F812201201D30AC2F30A0202F5EE
:101CF0008062B2F5006F28BF01339BB20AEBC80ABD
:101D000003F07F0300934FF680730222AC49204614
:101D100011F03DFA94230093AA4B0022AA492046D1
:101D200011F047F9BAF1FF0F40F30881226D538A91
:101D300043F0200353824FF4806300934EF2FF730D
:101D40000022A249204611F022FA6B7B012B00F001
:101D50000081AB7843F010030093FC2300224FF482
:101D6000C021204611F0CCF9731EDBB200224FF4E3
:101D70000031204611F050F86B78072B0CBF082378
:101D8000002301222821204611F046F8904B002222
:101D90009049204611F094F800228F49204610F017
:101DA0006EFC20F4FF5020F01F00B9F1090F08BFAE
:101DB00040F001002A79120202F4F852EB78DB00BD
:101DC000DBB21A436B795B0003F006031343034352
:101DD00000228149204611F073F8AA796B781B0321
:101DE00043EA822300936FF47443002224212046A7
:101DF00011F0DFF8B5F8093023B96FF07E036B728C
:101E00000023AB72B5F8093002224FF4C0212046FE
:101E100011F021F802227149204610F058FC236D80
:101E20001B7C4B4500F09F80032800F0A080B9F197
:101E3000090F00F0A1806A4B00226A49204611F088
:101E40003FF841F63C7300224FF41021204611F078
:101E500002F8142301226449204610F0DDFF0E230E
:101E600002226249204610F0D7FF812300226049F8
:101E7000204610F0D1FF022300224421204610F01A
:101E8000CBFF01212046FFF7E7FC4FF0320B4FF06C
:101E9000140800274426404613F077F83A463146A6
:101EA000204610F014FC10F0020F40F0AB800BF154
:101EB000FF3313F0FF0BEED16FF00100CFE0226D86
:101EC000538A43F0600353824FF4406300936FF4EE
:101ED000C05300223D49204611F06BF840F2063312
:101EE00000224449204610F0EBFF00231A464FF031
:101EF0000E11204610F0E4FF3F4B002230492046EF
:101F000010F0DEFF9D2300932E4B00222E49204629
:101F100011F04FF819E72A7B284B33F812304FF4B1
:101F2000356202FB03F2930CC2F3CA1202F580621F
:101F3000B2F5006F28BF01339BB2DFE64FF4A05328
:101F400000934EF2FF7300222049204611F01FF942
:101F5000FBE6AB780093EC2300224FF4C02120462F
:101F600011F0CEF800E703287FF461AF4DE00221C5
:101F70002046FFF771FC5AE7204B00221949204602
:101F800010F09EFF40F63C7300224FF410212046D3
:101F900010F061FF5DE74FFA89F12046FFF770FA14
:101FA00040E000220092FE231549204611F0A8F8D7
:101FB00042E000BF68660200CF4FFCFF786E010070
:101FC00012000E0000FFFF3F16000E0008000B007D
:101FD000CC355FAF0C0006001400010030000F008C
:101FE0003411071C1C0007005000070018000700F0
:101FF000080009000C000E000A5A0C003400011CF5
:1020000018000300236D83F810902B79093BDBB295
:102010000F2BC6D8236D5B7A012BBCD049462046D6
:10202000FFF71CF94FF4C843009348F2FF13002256
:102030000C49204611F0ABF8BAF1400FCCBF4FF07D
:1020400000534FF0A05300936FF07F4300220649E6
:10205000204610F0AEFF01212046FFF727FD03B018
:10206000BDE8F08F18000300100006002DE9F04FC6
:1020700091B0064615461C469C2900F29F80DFE879
:1020800011F06D0A780AA300A700BE0048018E0176
:102090006B0152019E01A901B101B901C101C90140
:1020A000D101D501DD016E027C0281028B0290021A
:1020B00095029E02A30209031B03260331033B037F
:1020C000730369035F0345035203C103F8012B0245
:1020D00039024102550296099B098203DF03E3039B
:1020E000EC03F103FB0305040D04370443044E0421
:1020F00078035904620474048D049E04E004EA0425
:102100000B051A053505230551059705AF05CF05C4
:10211000E405F80501061D060A0673079F07ED078B
:10212000F307FE071708370841084B0879088208AB
:10213000880891089E08AB08B508BE08C708D208F1
:10214000DD08E308060911091C0945096709720938
:102150008B09A109160A200A2B0A800A350A620A8D
:102160009107DF09000AEE0AE30A8D0A980AA30A1A
:10217000AE0AB90AC40ACF0AD80AD80B120C4D0C01
:10218000700C290D3E0D190B9D009D009D009D00BA
:102190009D009D009D009D009D009D009D009D0057
:1021A0009D009D009D009D009D009D009D00870C51
:1021B000A50CCE0DEF0CE40C030DFA0C4FF0FF351F
:1021C000284611B0BDE8F08F436898470025F7E72F
:1021D0000222B74910F07BFA032801D80025EFE767
:1021E00012F0B9FE0446002500952B462A462946E2
:1021F000304610F006FE204612F0B2FEE0E7002C5A
:1022000001F01085247814F01D0F65D014F0010F33
:1022100026D014F0020F4FF000020092134614BFB4
:102220000D21032110F0EDFD03224421304610F072
:102230004EFA10F0080F45D100229D49304610F0AB
:102240001EFAB0F5502F18BF0025B9D1002100911A
:102250000B460A46304610F0D4FD4FF0FF35AFE78D
:1022600014F0080F0ED114F0100F1BD114F0020F50
:102270004FF000020092134614BF1021092110F004
:10228000C0FDD1E70021FEF741FF14F0020F4FF02F
:1022900000020092134614BF0F210721304610F0B0
:1022A000B0FDC1E70121FEF731FF14F0020F4FF03E
:1022B00000020092134614BF0E210521304610F093
:1022C000A0FDB1E7002100910B460A46304610F010
:1022D00098FD4FF0FF3573E714F0200F0CD014F089
:1022E000020F4FF0000500952B462A4614BF11211E
:1022F0000B2110F086FD63E714F0020F4FF000058C
:1023000000952B462A4614BF0C21012110F079FDBF
:1023100056E7002C01F08984236800222C2110F05C
:10232000CFFD00254CE723680022624910F0C8FD6C
:10233000636800226049304610F0C2FDA3680022A5
:102340005E49304610F0BCFDE36800225C4930462F
:1023500010F0B6FD002533E7002C01F069842388D6
:102360006568032D01F26784DFE805F002070D13AD
:102370000022544910F06FFD22E70222514910F06B
:102380006AFD00251CE700224F4910F064FD00257E
:1023900016E702224C4910F05EFD002510E7002CE4
:1023A00001F04C8423785B0003F0060300936FF088
:1023B00006030022454910F0FCFD002500E74FF41C
:1023C000803300934FF0FF330022414910F0F1FDBC
:1023D0000025F5E6002C01F03484036D5B7B23704F
:1023E0000025EDE6002C01F02F84036D9B7A23700D
:1023F0000025E5E6002C01F02A84036DDB7A2370CA
:102400000025DDE6002C01F02584036D1B682360A8
:102410000025D5E6002C01F02084036D5B68236065
:102420000025CDE610F03AFD0025C9E6002C01F0AC
:1024300017842168FEF792FE0025C1E6002C01F00A
:10244000128425785DB1646840230093FF23002245
:10245000102110F055FE022D07D1F46005E0002296
:102460000092BF23102110F04BFE336D9D750025A7
:10247000A6E6002C01F0FA8365682378032215494B
:1024800010F0CAFC45B9002200924FF2FF731021F0
:10249000304610F07CFE93E64FF4812300934FF01A
:1024A000FF3300221021304610F083FD002587E61F
:1024B00030000F0054000100580001005C000100D2
:1024C00060000100180001001C0001001400010060
:1024D00004001100080001000022114610F0CFF89E
:1024E000B268136843405268134214BF4FF0FF357F
:1024F000002565E6002C01F0BC832178FFF702F986
:1025000000255DE63AB9002200924FF2FF73AE4912
:1025100010F03DFE54E64FF4006300934FF6FF7356
:102520000022A94910F033FE002549E602F001021D
:102530004FF6FF734FF2FF71002A08BF0B46D2021D
:1025400015F0020F12BF42F4805223F480539BB265
:10255000009200229C4910F01AFE002530E62AB9AC
:102560009A4B02229A4910F0ABFC29E6994B0222C1
:10257000974910F0A5FC002522E61146FEF704FE5F
:1025800000251DE6002C01F077830022924910F00F
:102590009EF82070002513E62146FEF717FE002561
:1025A0000EE62146FEF736FE002509E601230093DC
:1025B000FF230022894910F0A3FD002500E6114603
:1025C000FEF74CFE0025FBE5036D1B7A002B37D18F
:1025D000142301228249304610F01EFC18230022E9
:1025E0008049304610F06CFCE82300227E493046DA
:1025F00010F066FC336D5B8A03F0E003202B22D0E1
:10260000602B2BD0336D1B7E5B0832D000227749C4
:10261000304610F04AF8C0F3C403093B0F2B01F217
:102620002E8300F0010000280CBF05210921336D25
:102630005B7A012B29D03046FEF710FE0025BFE55E
:10264000FFF7CAF9C4E74FF4806300936FF4C053F7
:1026500000226749304610F0ACFCD3E74FF44063EA
:1026600000936FF4C05300226149304610F0A1FC82
:10267000C8E7012300225F49304610F0CDFB326DE0
:10268000137E43F002031376C0E73046FEF7F8FEF0
:10269000002595E5002C01F0F5822378026DD375B5
:1026A0001B0303F43043009344F6FF730022102110
:1026B00010F06DFD002583E5002C01F0E6822388F3
:1026C00000224FF4602110F0C6FB002578E5002CB5
:1026D00001F0DE8200224FF460210FF0E6FF20803F
:1026E00000256DE5002C01F0D682238800224249A6
:1026F00010F0B1FB002563E5002C01F0CF82002231
:102700003D490FF0D2FF2080002559E5002C01F053
:10271000C882A388E288216800914FF4B01110F0BC
:1027200070FB00254CE5002C01F0BE82A388E288F6
:10273000216800914FF4B0110FF097FF00253FE59D
:10274000002C01F0B482E388A2882168FEF730FEF5
:10275000002535E5002C01F0AD82E3882268A188D0
:10276000FEF75CFE00252BE5114610F0BEFB0025B0
:1027700026E5002C01F0A182237962882188FEF7EA
:102780009BFF00251CE5002C01F09A82036DDB7B8A
:10279000012B0CD0032B10D10C224FF4F0110FF0B1
:1027A00084FF00B240F30C032380002508E50022DB
:1027B00012490FF07AFF00B2F4E7002210490FF03F
:1027C00074FF00B2EEE700BF080011007408D200E9
:1027D000100011007488D2041C00070004000200DD
:1027E000500007000C001F0010001F001400010023
:1027F00008000B0028000100040001000C00180074
:1028000020000C00002C01F05E820CAB009303232F
:102810000022BB490FF029FF9DF832209DF831308E
:1028200003EB02229DF8303003EB022313F4801FE8
:102830001CBF6FEA03336FEA133323600025BFE444
:10284000FEF73CFA0025BBE4002C01F03F826188D2
:10285000FEF78EFF20700025B2E421460FF045FF01
:102860000025ADE4002C01F03482012274210FF028
:1028700006FF20600025A3E4002C01F02D82002239
:1028800074210FF0FCFE2060002599E400940523DC
:10289000002274210FF0E9FE002591E4002C01F0E4
:1028A0001E82036DDB7B012B14D0032B19D1162262
:1028B0004FF4F0110FF0F9FEC0F30D0083B213F4E2
:1028C000005F04D06FEA83436FEA934318B220801D
:1028D000002575E402228B490FF0E7FEC0F30D00DE
:1028E000ECE7022288490FF0E0FEC0F30D00E5E7B7
:1028F00000940623002285490FF0B7FE637903F0A8
:102900000103637100255BE4002C01F0EB810122DF
:102910004FF008110FF0DBFE2070002550E4002C72
:1029200001F0E38100224FF008110FF0D0FE20707B
:10293000002545E4002C01F0DB81A2882168FEF728
:1029400003FE00253CE4002C01F0D5812568A48815
:1029500022462946FEF7F8FD21463046FEF7E4F907
:102960002D1A18BF4FF0FF352AE4022A0ED0684C0A
:1029700000231A462146304610F04EFA0223002268
:102980002146304610F048FA002519E40023009350
:10299000FE2301225F4910F0B3FBE8E7002C01F0B1
:1029A000AD812488E2B24FF48171FEF7FFF9220A6B
:1029B00040F203113046FEF7F9F9002500E4002C3F
:1029C00001F09F81DFF8588110230093FF2300223C
:1029D000414610F095FB4FF482713046FEF7C6F980
:1029E00000F0E0052A464FF482713046FEF7DEF92A
:1029F00045F004024FF482713046FEF7D7F9022009
:102A000012F0B0FA4FF487713046FEF7AFF907467F
:102A100040F20F113046FEF7A9F981462A464FF4DD
:102A200082713046FEF7C2F900250095EF232A4651
:102A30004146304610F064FB47EA09272780FFF73C
:102A4000BFBB002C01F06081A2782188FEF7D6F987
:102A50000025FFF7B5BBFEF731F9012012F082FA2D
:102A600003230093FF2300222B49304610F048FB3C
:102A700000231A464FF48811304610F0CDF901209A
:102A800012F070FA336D0025DD7302225A829D75B3
:102A9000DD751D74FFF794BB002C01F0388123789D
:102AA00003F03F03026D937300221C4910F0B4F948
:102AB0000025FFF785BB002C01F02C81036D9B7B6B
:102AC00023700025FFF77CBB0121FEF7F7FC3046A1
:102AD000FEF728FD01213046FEF710F90F220121F3
:102AE0003046FFF76FF80025FFF76ABB002C01F0B6
:102AF000148162682168FFF765F80025FFF760BB65
:102B000029000600140018001C000C0018000C001E
:102B100004000A000800110004001100140009005C
:102B200048000700002C01F0FB80D64D002229460A
:102B30000FF0CDFD804602230093FF23002229469B
:102B4000304610F0DDFA04230022CF49304610F061
:102B500063F9012300224FF40021304610F05CF9A4
:102B6000CA4F00252A46394630460FF0B0FD10F016
:102B7000010FF7D000224FF0081130460FF095FDFD
:102B8000054600231A464FF40021304610F044F960
:102B900000231A46BC49304610F03EF94346002255
:102BA000B849304610F038F925800025FFF708BBFA
:102BB000002C01F0B8802379026DD27A9B1A07EEBF
:102BC000903AF8EEE77A9FEDB27A67EE877AB3EE45
:102BD000067A77EE877AC4ED007A0025FFF7F0BA1F
:102BE000002C01F0A3802379026D927A9B1A07EEE4
:102BF000903AF8EEE77A9FEDA77A67EE877AB3EE20
:102C0000007A67EE877ADFEDA46A87EEA67AF0EEA7
:102C1000087A77EE277AC4ED007A0025FFF7D0BA5C
:102C2000002C01F0868024680121FEF747FC304625
:102C3000FEF778FC01213046FEF760F82146304669
:102C4000FEF7F2FD0025FFF7BBBA00250095EF2344
:102C50002A46924910F054FA05213046FEF74EF804
:102C600001213046FEF786FB3046FEF779FBFFF781
:102C7000A7BA00250095EF232A46884910F040FAAC
:102C8000FFF79EBA002C01F057802168FEF7CCFDBB
:102C90000025FFF795BA002281490FF006FDC0F329
:102CA0000B0510F4006F18BF45F470452DB2258058
:102CB000336DB3F91430ED1AFFF782BA002C01F02E
:102CC0006D80D4F80490237A99F81320FF2A00F03D
:102CD0003F81002B36D1D9F8003000930C2300221D
:102CE000704910F08EF899F80C30B9F80E20D11810
:102CF00099F81220002A5FD199F8100000280BBF24
:102D00007F224FF480624FF4B0154FF4A01599F86C
:102D10001300121A023A914200F22081D9F80420DD
:102D2000009200222946304610F06BF8B9F80E30B8
:102D300099F80C20D9F8081000912946304610F077
:102D400060F84AE0D9F80030B9F80E109A7A8DF898
:102D500030205A7A8DF831201A7A8DF83220DA79BB
:102D60008DF833209A798DF834205A798DF83520F2
:102D70001A798DF83620DA788DF837209A788DF820
:102D800038205A788DF839201A788DF83A200022A8
:102D90008DF83B208DF83C10090A8DF83D10197B09
:102DA0008DF83E10DB7A8DF83F300CAB009310238A
:102DB0003C4910F026F896E7012A40F0CC8099F8BB
:102DC0001130002B40F2FF3308BF7F2399F8132006
:102DD0009B1A023B994200F2C48099F81020531EBE
:102DE000DBB2012B40D999F81130591EC9B2012923
:102DF00064D9042B69D042EA433300222A49304681
:102E000010F05EF8B9F80E30284A02EAC31299F8B9
:102E10000C3003F07F03134300222549304610F0A5
:102E20004FF801230022234930460FF0F5FFDFF869
:102E3000888000273A46414630460FF048FC10F0A3
:102E4000050FF7D00546034600221B4930460FF018
:102E5000E3FF05F03F0525F03003012B42D06BB2B4
:102E600023700025FFF7ACB9336DDB7B032B01F03A
:102E70002E8099F811305A1ED2B2012A2CD9012283
:102E8000B7E700BF4800070034000700040008004F
:102E90006666863FCDCCCC3E00007F4324000F0009
:102EA00008000200340001004400010080FF01001E
:102EB000480001004C00010050000100336DDB7B35
:102EC000032B0CBF0223012395E7B9F80E1010293C
:102ED00091D96FF00303C3E7012213468BE7022267
:102EE000134688E799F81230012BB8D199F81120D0
:102EF000531EDBB2012B1BD9032A0CBF4FF4A017C2
:102F00004FF4B017D9F8042012B199F80C30C3B9B6
:102F1000D9F808100029A2D0B9F80E30002B9ED0A5
:102F200099F80C200091394630460FF09EFB96E749
:102F3000336DDB7B032B0CBF4FF498174FF49017C6
:102F4000E0E700920022394630460FF08EFBDFE7C3
:102F50006FF0020384E76FF0010381E74FF0FF3366
:102F60007EE74FF0FF337BE7237AE179A279D20045
:102F700042EA41021343627943EA8213227943EA27
:102F8000C213E27843EA0223A27843EAC2236278BA
:102F900043EA02339BB20022CD490FF05CFF0025CB
:102FA000FFF70EB9002C00F0FC86637833B15B08A4
:102FB000013BDBB223700025FFF702B90023F9E7DC
:102FC0000022C4490FF05BFBC0F30B032380C0F366
:102FD0000B4060800022C04930460FF050FBC0F328
:102FE0000B03A380C0F30B40E0800022BB493046B6
:102FF0000FF045FB2072000C60720022B849304689
:103000000FF03DFBC0F30B43A381C0F30B006081C5
:103010000022B44930460FF032FBC0F30B43A4F852
:103020000F30A0730022B04930460FF028FB6074C7
:10303000000CA0740022AD4930460FF020FBC0F315
:103040000B00A4F8130000256575A5752A46A8494C
:1030500030460FF03CFBE075FFF7B2B811460FF0B9
:10306000E7FE0025FFF7ACB8002C00F09D86238812
:103070000022A0490FF0EFFE0025FFF7A1B8002CB9
:1030800000F09586256835B900231A469A490FF055
:10309000E2FEFFF795B86279237943EA022323F031
:1030A000F003002294490FF0D6FE0025FFF788B800
:1030B000002C00F07F8623684BB9002500954FF661
:1030C000FF532A46102110F062F8FFF779B800226A
:1030D00034210FF0F5FE4FF4007300934FF6FF73A9
:1030E00000221021304610F052F80025FFF768B892
:1030F000002C00F062866188FDF738FE2070002504
:10310000FFF75EB8002C00F05B86A2782188FDF7FF
:103110004DFE0025FFF754B8784B794A012D18BFB2
:103120001346012D774918BF4FF00C11026DD27B69
:10313000012A12D0032A17D1A2F5C012013A1A446B
:103140004FF4F0110FF0B1FAC00920802588003546
:1031500018BF01256D42FFF733B8022219460FF060
:10316000A4FAC0092080F1E702220FF09EFAC009FC
:103170002080EBE7002C00F026862178FEF748FC43
:103180000025FFF71DB81146FEF766FB0025FFF787
:1031900017B80094042300221C210FF066FA0025C2
:1031A000FFF70EB8002C00F01186022244210FF028
:1031B0007CFAC0F3002020700025FFF701B8002C36
:1031C00000F00786002244210FF081FA00F0010090
:1031D00020700025FEF7F4BF002C00F0FD8562880A
:1031E00021880FF0A1FF0025FEF7EABF0094082315
:1031F000002204210FF005FE0025FEF7E1BF009438
:103200000823002204210FF030FA0025FEF7D8BF72
:10321000002C00F0E485238802220C210FF01BFE15
:103220000025FEF7CDBF002C00F0DC8523880022AE
:103230000C210FF010FE0025FEF7C2BF2146FDF75E
:10324000E9FC0025FEF7BCBF036DDB7B012B0BD037
:10325000032B12D10094052320224FF4F0110FF01C
:1032600004FA0025FEF7ACBF00940523002226498E
:103270000FF0FBF90025FEF7A3BF00940523002201
:103280004FF440210FF0F1F90025FEF799BF00251A
:1032900004F8015B009404232A4670210FF0E5F93D
:1032A000FEF78EBF002C00F0A085012264210FF0F4
:1032B000E6F920600025FEF783BF002C00F098851A
:1032C000002264210FF0DBF920600025FEF778BFB3
:1032D0003000010004000F0008000F000C000F0078
:1032E00010000F0014000F0018000F001C000F004A
:1032F00028000F00040006001A0011003400180016
:103300002C00180014000C0020001800036DDB7B5B
:10331000012B0BD0032B12D10094052328224FF44C
:10332000F0110FF0A2F90025FEF74ABF0094052323
:103330000022D3490FF099F90025FEF741BF009410
:1033400005230022CF490FF090F90025FEF738BF82
:10335000002C00F0508500221C210FF090F9206015
:103360000025FEF72DBF002C00F0488525886768F2
:10337000237A002B00F045853C4607EB830729465E
:103380003046FDF7D1FC44F8040B0135ADB2BC4228
:10339000F5D10025FEF714BF002C00F03585237809
:1033A000012228210FF038FD0025FEF709BFFEF7A6
:1033B000B1FA0546FEF704BF1146FEF777FB054656
:1033C000FEF7FEBE002C00F02285A5780121FDF756
:1033D00095FC00213046FEF771F83046FEF7A2F862
:1033E00005F03F030022A84930460FF015FD0123E8
:1033F0000093FF230022A54930460FF081FEA34F22
:1034000000252A46394630460FF061F910F0010FC9
:10341000F7D100229E4930460FF047F90546304665
:10342000FDF79EFF00213046FDF7A4FF0521304641
:10343000FDF764FCC5F30B0525800025FEF7C0BE33
:103440000221FEF709FA01213046FEF705FA32247F
:103450004FF0140800274425404611F096FD3A46E7
:10346000294630460FF033F910F0020F05D1631EE4
:1034700013F0FF04F0D1012500E000256D42FEF7B6
:103480009FBE002C00F0C68423781B0303F4E043A6
:103490006278012A08BF43F4807300936FF4E2431B
:1034A00000227C490FF085FD0025FEF789BE002C27
:1034B00000F0B384626821680FF09FFD0025FEF7DD
:1034C0007FBE002C00F0AC842388002272490FF0EC
:1034D000C2FC0025FEF774BE002C00F0A4846268D4
:1034E0002188FEF713FB0025FEF76ABE002C00F0D2
:1034F0009D84657823788BB1036D0022DA734FF0D9
:10350000FF330822E5B123F48063009200221021EA
:1035100030460FF04EFD0025FEF752BE036D01222E
:10352000DA73182300225D490FF0CAFCE823002259
:103530005B4930460FF0C4FC6FF008030022E1E75E
:1035400042F48062E1E7002C00F0738423680022DB
:1035500030210FF0B5FC0025FEF732BE002C00F044
:103560006B84002229460FF08AF820600025FEF7C0
:1035700027BE2346002229460FF0A2FC0025FEF7B5
:103580001FBE002C00F05B84032246490FF09FF819
:10359000C0F3021020700025FEF712BE002C00F0D0
:1035A00051842368002244210FF08AFC0025FEF795
:1035B00007BE002C00F049842388002248210FF028
:1035C0004AFC0025FEF7FCBD002C00F041840022DF
:1035D00044210FF054F820600025FEF7F1BD002CC7
:1035E00000F03984002248210FF05FF820600025A8
:1035F000FEF7E6BD002C00F03184237800222A4932
:103600000FF00AFC0025FEF7DBBD002C00F029843A
:10361000002244210FF05BF820700025FEF7D0BD9A
:10362000002C00F02184FDF717FB20600025FEF739
:10363000C7BD002C00F01B8400221C490FF035F898
:1036400020800025FEF7BCBD002C00F01384002272
:1036500017490FF014F820600025FEF7B1BD002CCB
:1036600000F00B842388C3F30D0300934FF4404311
:1036700000220F490FF08BFD0025FEF7A1BD00BF12
:103680002800180008000C001C00070010000800AB
:103690001400080014000700080005000C001F00BB
:1036A00010001F0060000300240001002C00050032
:1036B0001A000E00002C00F0E383A788A36809938A
:1036C000217B0691226904926269059203F003024C
:1036D000C3F38500052942D1B7F5B17F28BF4FF468
:1036E000B177DFF8E092042F05D809EB00035B788F
:1036F000053B9F423BDB012A77D8AE4B995C3E46A7
:10370000B94274DA551C53FA85F500230B449BB279
:103710000132D2B2022A05D015F8011BA6EB030C28
:103720006145F3DB9F4208BF039064D007F10508B1
:103730001FFA88F8802500210791039108910E4611
:103740004FF0050BBE465F4538BFDE46AEF1050EB5
:103750001FFA8EFEDFF85CA2BC460F46DDE340F2A6
:1037600031139F4228BF1F46DFF85C92BBE700235E
:10377000059A1380049A1146099A0A604AE00023C8
:10378000059A1380049B1A46099B13604FF0FF3380
:1037900040E01FFA81FB0792039008930127CDE3D5
:1037A000002F40F0A183984500F2A383002E38D06B
:1037B0003F2800F0C883002719F800105B1A9BB25D
:1037C000461E06F03F0016F03F0618BF01269CE398
:1037D0000699092940F0BD833F2103910BE0B3B264
:1037E0000132D2B23F21039105E000239AE7002382
:1037F00098E70390634605990B80039B42EA830296
:10380000D2B2130443EA0263134343EA0223049A45
:103810001360002323600025FEF7D2BC079A089BA3
:10382000E9E70390E7E7079A089BE4E73F21039164
:10383000E1E7002C00F0278325786268012A15BF94
:103840006FF460336FF4E043DF27EF2714BF4FF0CE
:1038500020084FF010080024009422464FF4A021C5
:103860000FF0A7FB00943B462246534930460FF029
:1038700047FC012D03D065B10025FEF7A1BC25460C
:1038800000943B4622464D4930460FF039FCFEF786
:1038900097BCCDF80080FF230022484930460FF046
:1038A0002FFCFEF78DBC002C00F0F082227812F085
:1038B000010F2DD0570107F0400740244FF4E013CB
:1038C00012F0040F28D043F4600344F08004120186
:1038D00002F0800217434FF400120092DB430022F3
:1038E0004FF4A02130460FF064FBE443A4B200255E
:1038F000009523462A46304930460FF048FC009791
:1039000023462A462D4930460FF041FCFEF758BCAD
:1039100000273C463B46D3E70022DEE7082300931E
:10392000FF2301224FF480210FF0EAFB244C0223F5
:103930000093FF230322214630460FF0E1FB0025D0
:103940000095F72301224FF4802130460FF0D8FB79
:103950000095FD230322214630460FF0D1FBFEF7F0
:103960002FBC002C00F095826388DB0003F4FF631A
:1039700022780AB143F4006300934FF20703002258
:103980004FF4802130460FF002FC0025FEF718BCF2
:10399000002C00F0818223789A1C01239340013B84
:1039A000DBB200224FF400310FF036FA0025FEF7AB
:1039B00007BC00BF3C6E0100080005000C000500BC
:1039C00008001100BC6D0100FC6D0100002C00F02E
:1039D0006682E37A002B00F06582637B012B21D99C
:1039E000227BD74B33F812201201D30AC2F30A020A
:1039F00002F58062B2F5006F28BF01339BB203F07D
:103A00007F0300934FF680730222CE4930460FF0B9
:103A1000BEFB94230022CC4930460FF0FDF900256F
:103A2000FEF7CEBB227BC64B33F812304FF4356223
:103A300002FB03F2930CC2F3CA1202F58062B2F5E4
:103A4000006F28BF01339BB2D9E7002C00F02D8214
:103A50000022BE490EF013FE20600025FEF7B0BB29
:103A6000002C00F025820022B9490EF008FE2060EB
:103A70000025FEF7A5BB002C00F01D824FF4A81313
:103A800023600025FEF79CBB002C00F01782002568
:103A90000B9510AF192347F8103D009704232A46D1
:103AA000AC490FF0AEF941F648730C93009704232C
:103AB0002A46A94930460FF0A4F90BAB0093042322
:103AC0002A464FF4E81130460EF0CFFD0B9B2360E1
:103AD000FEF776BB002C00F0F48100229F490EF027
:103AE000CEFD80B2206000229D4930460EF0C7FD19
:103AF000430D9B019BB263600025FEF761BB002C68
:103B000000F0E281637D2BB1012B37D0022B5ED018
:103B1000FF232FE0002293490EF0B1FDC0F30B000C
:103B200020600022904930460EF0A9FDC0F3150038
:103B3000606000228D4930460EF0A1FDC0F31500F3
:103B4000A06000228A4930460EF099FDC0F31500AE
:103B5000E0600022874930460EF091FDC0F310006E
:103B600020610322794930460EF0B1FDC0F3021006
:103B700020750023A3750025FEF722BB00227E4995
:103B80000EF07DFDC0F30B00206000227B49304623
:103B90000EF075FDC0F315006060002278493046D4
:103BA0000EF06DFDC0F31500A06000224FF450210F
:103BB00030460EF064FDC0F31500E060002271494C
:103BC00030460EF05CFDC0F313002061C9E700220F
:103BD0006D490EF054FDC0F30B00206000226B49CC
:103BE00030460EF04CFDC0F31500606000226849BD
:103BF00030460EF044FDC0F31500A0600022654978
:103C000030460EF03CFDC0F31500E0600022624932
:103C100030460EF034FDC0F313002061A1E700250B
:103C2000FEF7CEBA0025FEF7CBBA0025FEF7C8BADC
:103C30000025FEF7C5BA0025FEF7C2BA0025FEF73B
:103C4000BFBA0025FEF7BCBA0025FEF7B9BA0025B9
:103C5000FEF7B6BA0025FEF7B3BA0025FEF7B0BAF4
:103C60000025FEF7ADBA0025FEF7AABA0025FEF73B
:103C7000A7BA0025FEF7A4BA0025FEF7A1BA0025D1
:103C8000FEF79EBA0025FEF79BBA0025FEF798BA0C
:103C90000025FEF795BA0025FEF792BA0025FEF73B
:103CA0008FBA0025FEF78CBA0025FEF789BA0025E9
:103CB000FEF786BA0025FEF783BA0025FEF780BA24
:103CC0000025FEF77DBA0025FEF77ABA0025FEF73B
:103CD00077BA0025FEF774BA0025FEF771BA002501
:103CE000FEF76EBA0025FEF76BBA0025FEF768BA3C
:103CF0000025FEF765BA0025FEF762BA0025FEF73B
:103D00005FBA0025FEF75CBA0025FEF759BA002518
:103D1000FEF756BA0025FEF753BA0025FEF750BA53
:103D20000025FEF74DBA0025FEF74ABA0025FEF73A
:103D300047BA0025FEF744BA0025FEF741BA00BF96
:103D4000786E010012000E0016000E0060000300E5
:103D500048000F0004001F0008001F0048000C006E
:103D600028000C0058000C0030000C0034000C003F
:103D700038000C002C000C0020000D0064000C002A
:103D800068000C0060000C0068000D0040000D0091
:103D900044000D0048000D003C000D000025FEF71A
:103DA0000FBA0025FEF70CBA0025FEF709BA002568
:103DB000FEF706BA0025FEF703BA0025FEF700BAA3
:103DC0000025FEF7FDB90025FEF7FAB90025FEF73C
:103DD000F7B90025FEF7F4B90025FEF7F1B9002583
:103DE000FEF7EEB90025FEF7EBB90025FEF7E8B9BE
:103DF0000025FEF7E5B90025FEF7E2B90025FEF73C
:103E0000DFB90025FEF7DCB90025FEF7D9B900259A
:103E1000FEF7D6B90025FEF7D3B90025FEF7D0B9D5
:103E20000025FEF7CDB90025FEF7CAB90025FEF73B
:103E3000C7B90025FEF7C4B90025FEF7C1B90025B2
:103E4000FEF7BEB90025FEF7BBB90025FEF7B8B9ED
:103E50000025FEF7B5B90025FEF7B2B90025FEF73B
:103E6000AFB90025FEF7ACB90025FEF7A9B90025CA
:103E7000FEF7A6B90025FEF7A3B90025FEF7A0B905
:103E80000025FEF79DB90025FEF79AB90025FEF73B
:103E900097B90025FEF794B90025FEF791B90025E2
:103EA000FEF78EB90025FEF78BB90025FEF788B91D
:103EB0000025FEF785B90025FEF782B90025FEF73B
:103EC0007FB90025FEF77CB90025FEF779B999F88E
:103ED00011305A1ED2B2012A7FF601A80222FEF743
:103EE00088BF002F3FF462AC19F800105B1A9BB238
:103EF00081E43F2827D0002E7FF45EAC013000F033
:103F00003F0019F800100B449BB29C453FF471AC84
:103F1000013D15F0FF053FF432AC9E45BFF440ACC7
:103F20009845DED9ACEB030109B20029B8BF49427C
:103F300059457FF72EAC002F7FF470AC3F28DAD1C3
:103F4000002F7FF470AC032A3FF470AC022A3FF4D8
:103F50003FAC1AF802105E1866457FF740AC0B4480
:103F60009BB20132D2B2002726E400BF2DE9F04116
:103F700005460E46036D002B5CD02C6D0023E373C9
:103F800002226282A375E3752374A372E372042193
:103F90002846FCF7C9FE074605212846FCF7C4FE63
:103FA00080460A212846FCF7BFFEC0F30440207279
:103FB00027B1B8F1000F01D0002840D120212846B8
:103FC000FCF7B2FE2F4B98420CBF01230023637213
:103FD00016F0100F37D116F0200F3AD116F0400F1F
:103FE0003DD116F0800F41D1E37A0BB98523E372FE
:103FF000A37A0BB97423A3721F212846FCF794FE01
:1040000060731E212846FCF78FFE10F03F0012BFA0
:10401000A0732E23A373A37B00221B4928460EF016
:10402000FBFE35212846FCF77FFE034620BB00201F
:10403000BDE8F0812C2009F049FB28659DE7284662
:10404000FDF7CAFCBAE706212846FCF76DFE2060A2
:10405000C1E707212846FCF767FE6060BEE708213C
:104060002846FCF761FE000CA072BAE70921284639
:10407000FCF75AFEE072B7E70022044928460EF02A
:104080001FFFD4E7400200101400090004000900DB
:10409000F0B585B00446436B1968FFF767FF064625
:1040A00023681B69984703AB002211462046FDF7A1
:1040B000DDFF636B9B6A19682046FDF7ADFD636BFE
:1040C0009B6A59682046FDF795FB636B9B6ADB8909
:1040D00000224FF4602120460EF0BDFE636B9B6A08
:1040E0009B890022524920460EF0B5FE0021204651
:1040F000FDF734F8002500954FF6FF532A461021AE
:1041000020460FF044F8636B9B6A5A891989204650
:104110000FF00AF8636B9B6A1B8A02220C2120466F
:104120000EF099FE636B9B6A5B8A2A460C2120463F
:104130000EF091FE636B197A2046FDF769FC636B04
:10414000D9682046FDF720F8616B0B7E4A69096942
:1041500020460EF070FF636B9A7F998B2046FCF728
:104160004DFE226D937B2E2B05D0636B93F82C3084
:1041700033F03F030AD0636B93F82C3003F03F0316
:10418000937300222B4920460EF046FE636B93F892
:104190002D102046FDF7B6FA636B196A2046FDF72D
:1041A00015F8636B596A2046FDF734F8636B93F892
:1041B0002E30A3BB636B93F82F1020460EF038FE11
:1041C00094F94C50002D27DB012303FA05F5AFB21B
:1041D0004FF09072394620460EF00FFF0DF10A03A2
:1041E0000093022300224FF4A02120460EF03DFA56
:1041F000BDF80A3023EA0503ADF80A3000220E4963
:1042000020460EF028FE94F94D20B2FA82F25209AF
:1042100039462046FDF77AFC304605B0F0BD012353
:104220000093FF230022054920460EF069FFC1E7F5
:104230000400010014000900080005000400020049
:104240009829024818BF0020704700BF806F010006
:1042500000B583B0036D9B7B012B0BD0032B10D1DA
:104260000091052304224FF4F0110FF028F803B059
:104270005DF804FB00910523002205490FF01FF8AB
:10428000F5E700910523002260210FF018F8EEE712
:104290000400180008B5012902D0052907D008BD7F
:1042A00041F62203002205490FF008FCF7E74FF41E
:1042B0000073002201490FF001FCF0E70400110037
:1042C00070B504460E460C4D0123002229460FF01E
:1042D000F5FB33460022094920460FF0EFFB02238D
:1042E0000022294620460FF0E9FB0022044920461F
:1042F0000EF0EFFF70BD00BF08000B0004000B00C4
:1043000010000B0038B505460C460B6800220B491F
:104310000FF0F7FB63680022094928460FF0F1FB14
:10432000A3680022074928460FF0EBFBE368002250
:10433000054928460FF0E5FB38BD00BF0C00020020
:1043400010000200140002001800020038B50546F3
:104350000C460B6800220B490FF0D3FB6368002268
:10436000094928460FF0CDFBA368002207492846DB
:104370000FF0C7FBE3680022054928460FF0C1FB98
:1043800038BD00BF1C000200200002002400020013
:10439000280002002DE9F047044605293AD0234DB4
:1043A0002E46234FDFF8C480DFF8C490DFF8C4A0A6
:1043B000204B0022204920460FF0A3FB5346002249
:1043C0001E4920460FF09DFB4B4600221C4920460B
:1043D0000FF097FB434600221A4920460FF091FB4D
:1043E0003B460022184920460FF08BFB3346002243
:1043F000164920460FF085FB2B4600221449204623
:104400000FF07FFB134B0022134920460FF079FB7E
:10441000BDE8F087114D124E124FDFF85C80DFF8D7
:104420005C90DFF85CA0104BC3E700BFB5AF0200A3
:104430007DAF0200FEA80200380003003C0003002C
:104440004000030044000300480003004C00030048
:1044500050000300400200101C000300F5CF0100D3
:10446000B5CF010036CF0100FDC001003EAF020014
:10447000FEA5020036AC02007EC70100BEC60100E8
:104480003EC4010008B500231A4602490FF039FB6B
:1044900008BD00BF0400070038B504460D460023E0
:1044A0001A460A490FF02DFB00231A464FF4E0216B
:1044B00020460FF026FB05B938BD4FF0E05300222F
:1044C000034920460FF01DFBF6E700BF4800070038
:1044D00014000700F0B583B0046DA47B032C0CBF5F
:1044E0004FF4981C4FF4901C9C18B4F5806F19DAA7
:1044F0001D4616460F4604467F2B15D94FEA1C432E
:1045000000220D490FF0FDFA2B4600220B492046F0
:104510000FF0F7FA0097334600224FF4E8112046D7
:104520000EF0CDFE03B0F0BD009113462A46614661
:104530000EF0C5FEF6E700BF04001F0008001F00D4
:1045400010B50446036D9B7B012B13D0032B1DD1AB
:10455000F023002212490FF043FB00224FF4F01128
:1045600020460EF0CCFE236DDA7AA2B1C0F309002A
:10457000D88310BD0F23002209490FF031FB002220
:104580004FF4C01120460EF0BAFEECE700224C2199
:104590000EF0B5FEE7E700F07F00D883E9E700BF43
:1045A0001800010010B50446036D9B7B012B04D05D
:1045B000236D9B7B032B06D010BD0F2300220549E2
:1045C0000FF00EFBF4E7F0230022024920460FF023
:1045D00007FBF1E71800010038B5044600231A462E
:1045E0004FF420210FF06AFA00231A4608492046AA
:1045F0000FF0F6FA074D00231A46294620460FF021
:10460000EFFA02230022294620460FF0E9FA38BDCE
:1046100014000A0004000A0038B504460B460022C4
:104620000A490FF04BFA0A4D8823002229462046FA
:104630000FF0D6FA00231A46294620460FF0D0FA8A
:104640000022044920460EF06CFE38BD0C000A0022
:1046500004000A0008000A0070B504460B4615461F
:10466000B1F5807F34BF0026202600220B490FF0D1
:1046700025FA2B4600220A4920460FF0B1FA094DCF
:1046800046F090030022294620460FF0A9FA0023A5
:104690001A46294620460FF0A3FA70BD0C000A0006
:1046A00010000A0004000A0070B504460D461646C4
:1046B000002240F20B11FFF7CFFF4FF4827120462A
:1046C000FFF7AAFF00F01F024FF482712046FFF7A8
:1046D000C3FF236D1A8A15431D82236D1B8A002296
:1046E0004FF4202120460FF0E9F933460022024919
:1046F00020460FF075FA70BD14000A00F0B583B0C3
:104700005C18B4F5806F24DA1C4617460E46054641
:104710007F2B15D9142300220F490FF0F2F92346FD
:1047200000220E4928460FF0ECF90097334600228C
:104730004FF4E81128460FF0B6F9002003B0F0BDA1
:1047400000920B4622464FF4A0110FF0ACF9002066
:10475000F4E74FF0FF30F1E704001F0008001F00EE
:104760002DE9F041044600224FF4F8110EF0D9FD76
:1047700005460022442120460EF0ABFD0646236D7F
:104780000022DA8383F820209A619A835A62236D8B
:104790005C62236D9F7B002F7FD1236D9E61D4F8D7
:1047A000508098F8153003F00303032B00F090803D
:1047B00015F0800F40F0938015F0010F40F0C1809C
:1047C00015F0400F0BD0636A13B1206D1830984775
:1047D0004FF4C0730222442120460FF06FF915F008
:1047E000080F07D1236D9B7B002B00F0EA80002F80
:1047F00000F0E780236D002283F8202016F4802F3C
:1048000000F0AD80226D92F8203043F0080382F86A
:1048100020304FF4802716F0805F08D0226D92F888
:10482000203043F0100382F8203047F0805716F410
:10483000005F06D0226D537D03F00303032B00F0CD
:104840009A8016F4804F40F0A28047F4DE430022A5
:10485000442120460FF055F92046FFF7A3FE206DB6
:10486000C38B002B40F0A280437D03F00303032B96
:1048700000F09C80836923F490438361226D9369E7
:1048800043F480539361E36913B1206D1830984766
:10489000236D002283F820208CE06D4920460EF025
:1048A00040FD0746236D9B7B032B08BFC0F3071712
:1048B00017F0010F18BF46F4804617F0020F18BF1B
:1048C00046F4005617F0040F18BF46F4806664E7FC
:1048D00016F4005F1CBF45F00805EDB268E7002242
:1048E000482120460EF00BFDA8F81C00236D1A7D10
:1048F0001AB19A6912F0040F03D19B8B03F4606321
:104900008BB104230022442120460FF069F94FF4B3
:1049100060630022482120460FF0D0F8236A13B1CB
:10492000206D18309847236D9B8B13F4807F3FF4E4
:1049300043AF4FF480730022482120460FF0BEF8A9
:104940003AE7F8230022442120460FF049F9236971
:10495000002B3FF435AF206D1830984730E716F440
:10496000806F1FBF226D92F8203043F0040382F85D
:10497000203000274FE792F8203043F0020382F8FE
:104980002030236D0022DA8347F400475DE720469C
:10499000FFF7D6FD10F4004F3FF457AF226D92F8A9
:1049A000203043F0010382F820304EE763690BB1F9
:1049B00018309847236D9B7B03BB236D002283F83F
:1049C000202015F0100F1DD115F0200F2DD1002241
:1049D000204920460EF0A5FC236D83F8210010F03D
:1049E000030309D000221B4920460FF0F9F8A36AFF
:1049F00013B1206D18309847BDE8F08120460FF0C4
:104A00000EF9DAE7144B0022442120460FF079F822
:104A10002046FFF7C7FDE36913B1206D18309847B2
:104A2000236D002283F82020CEE70C4B0022442186
:104A300020460FF066F82046FFF7B4FDA36913B1D6
:104A4000206D18309847236D002283F82020BEE7A0
:104A5000180001003800110000B4053400042210D1
:104A600070B582B004460E46134D4FF008230093F4
:104A70004FF0FF33002229460FF0E5F84FF06013A6
:104A800000934FF0FF330022294620460FF0DBF859
:104A90000A4B00934FF0FF3300224FF4E0212046F1
:104AA0000FF0D1F80EB902B070BD054B00220549D8
:104AB00020460FF026F8F6E748000700003C000209
:104AC000001101011400070000B583B0054B0093ED
:104AD0004FF0FF33002204490FF0B5F803B05DF842
:104AE00004FB00BF003C0002040007002DE9F04376
:104AF00083B004460D461746564E002231460EF04E
:104B0000E8FB81464FF4704300934FF0FF330022DF
:104B1000314620460FF097F8DFF83C811823002239
:104B2000414620460EF0CAFF252120460EF0D6FF52
:104B3000022120460EF0D2FF4FF4FE7120460EF007
:104B4000CDFFF9B241F4807120460EF0C7FF4FF45B
:104B5000807120460EF0C2FF002120460EF0BEFFFD
:104B6000022120460EF0BAFF4FF4E07120460EF00D
:104B7000B5FFE9B241F4807120460EF0AFFFC5F3F6
:104B8000072141F4807120460EF0A8FFC5F30741CC
:104B900041F4807120460EF0A1FF290E41F480718E
:104BA00020460EF09BFF002120460EF097FF3A2191
:104BB00020460EF093FF40F2FF1120460EF08EFFCC
:104BC0004FF4857120460EF089FF002120460EF03B
:104BD00085FF3A2120460EF081FF40F20111204668
:104BE0000EF07CFF022300224FF4302120460EF00D
:104BF00065FF00231A464FF4302120460EF05EFF79
:104C0000022010F0AFF93A2120460EF067FF4FF472
:104C1000817120460EF062FF022300224FF4302102
:104C200020460EF04BFF00231A464FF43021204659
:104C30000EF044FF00231A46414620460EF03EFF88
:104C40004B460022314620460EF05BFF03B0BDE824
:104C5000F08300BF4400070008000B0010B582B0CD
:104C600004467F2A12D9803241EAC32141EA024137
:104C700000910C4B002220210EF0E5FF00224FF4A2
:104C8000002120460EF04DFB02B010BD41EAC321C9
:104C900041EA02410091034B002220210EF0D3FF94
:104CA000F2E700BF00F400FC30B583B004460D46C7
:104CB00011F0010F15D000230093EF2302224FF4CF
:104CC00060210FF00EF8236D9D75236D9B7D5B08B1
:104CD00010D06B0800220E4920460EF081FF03B071
:104CE00030BD10230093FF2302224FF460210EF009
:104CF000F8FFE8E701230093FF2300220449204640
:104D00000EF0EFFF226D937D43F002039375E6E70B
:104D10002000010070B582B004460D460121FFF766
:104D2000B9FA00212046FFF79BFE2046FFF7CCFE94
:104D3000C5F30B030022154920460EF0BFFE0323E6
:104D40000093FF230022124920460EF0CAFF104EA6
:104D500000252A46314620460EF0E3FA10F0010FF6
:104D6000F7D12046FFF78EFB00212046FFF794FB8A
:104D700005212046FFF78EFA0022064920460EF054
:104D8000D0FA00F03F0002B070BD00BF1C00080068
:104D9000100008001C00070038B505460C46B1F8A5
:104DA000051049B1FFF7B6FFD4F8013000220549DC
:104DB00028460EF0A6FE38BD2378002202490EF0E8
:104DC0000FFFF1E7040001001C00070030B583B0BD
:104DD00004460D4610230093FF23002206490EF0DF
:104DE00080FF2B46022D38BF0223002228212046B7
:104DF0000EF087FE03B030BD28000F0030B583B041
:104E0000044601291DD002292FD001230093FF233E
:104E1000002225490EF065FF244D4FF40003009356
:104E20006FF480730022294620460EF00CFF002309
:104E300000937F230222294620460EF052FF03B042
:104E400030BD0521FFF726FA022300934FF0FF3310
:104E50000022174920460EF0F6FE01220092FF23A1
:104E6000124920460EF03DFFE9E703230093FF239C
:104E700000220D490EF035FF0C4D4FF40003009356
:104E80006FF480730022294620460EF0DCFE0023DA
:104E900000937F230222294620460EF022FF05219F
:104EA0002046FFF7F7F9CAE70400110008001100D7
:104EB000080009002DE9F04182B00546294C2A4B33
:104EC000002221460EF01DFE10230093FF23002236
:104ED000214628460EF005FF03244FF01408234F07
:104EE0000026404610F051F83246394628460EF06A
:104EF00018FA012834D0631E13F0FF04F1D16FF0CB
:104F00000204184E00231A46314628460EF068FE69
:104F100001230022154928460EF062FE012300936A
:104F2000FF230222314628460EF0DBFE0022104904
:104F300028460EF0CEF96FF06043984208BF6FF03C
:104F4000030400220B4928460EF0C3F96FF06043BA
:104F5000984214BF20466FF0040002B0BDE8F08113
:104F60000024CEE70C000400010002002000040031
:104F7000140004001C00040030B583B0044611F096
:104F8000010F1FD00D464FF4107300936FF47C6334
:104F900000224FF4A0210EF056FE4FF404030093BC
:104FA0004FF0FF330022184920460EF04CFE15F05A
:104FB000020F1AD14FF488730022144920460EF0D4
:104FC000A0FD10E0002500956FF47C632A464FF4A5
:104FD000A0210EF038FE00954FF6FF632A460B49DC
:104FE00020460EF031FF03B030BD084D084B0022C3
:104FF000294620460EF085FD4FF48873002229468D
:1050000020460EF07EFDEEE70400110018001100AE
:1050100010010F00F0B583B00446012909D0142017
:105020000FF0B3FF2046FFF745FF0546284603B0C3
:10503000F0BD0F4E002231460EF061F9074640F2F6
:10504000071300934FF6FF730022314620460EF0FF
:10505000FBFE14200FF099FF2046FFF72BFF0546BB
:10506000002200923B46314620460EF0EDFEDDE781
:105070004800070000B583B0012A09D0CB430022C5
:1050800000929BB206490EF0DFFE03B05DF804FB10
:1050900000914FF6FF73002201490EF0D5FEF4E7B0
:1050A0000C000500F0B583B004460F4616461D46B9
:1050B00048F2400300934FF6FF73002218490EF0A8
:1050C000C3FEAA1943F201039A4215DC7F2D1DD9B4
:1050D00015230022134920460EF013FD2B46002213
:1050E000114920460EF00DFD0097334600224FF483
:1050F000E81120460EF0E3F80022009247F6BF7355
:10510000074920460EF0A0FE03B0F0BD00973346DD
:105110002A464FF4A81120460EF0D1F8ECE700BF64
:105120000400110004001F0008001F0070B50646AF
:105130000C4615460E4B02220E490EF0E2FC0F2DD6
:10514000A8BF0F25631E032B28BF0424102323416F
:105150000022094930460EF0D4FC631E9B0005FA7C
:1051600003F30022054930460EF0CBFC70BD00BFB2
:105170007408D20010001100280007001800080071
:105180002DE9F04F83B004460D4691F800900B795D
:10519000182B14D8CF78182F94BF00270127FFB2FF
:1051A000EB79012B0CBF102100216B78013B062B02
:1051B00010D8DFE803F0060F0F120C0F09000127CB
:1051C000EDE74FF0400A0AE04FF0480A07E04FF0E1
:1051D000800A04E04FF4807A01E04FF0200A226D4B
:1051E000138A23F0E0031382236DEA79DA722E7BAF
:1051F000B31C01269E401FFA86F8226DC74B03FBA5
:1052000008F3DB0B5382236DEA7A5A752B7A5B0124
:1052100003F020036A7B43EA0243EA7A120302F4B2
:10522000304213430B430093BD4B00221021204614
:105230000EF009FD002F40F00681EB7AF3B16B7B95
:10524000012B40F22B812A7BB64B33F8122012013E
:10525000D30AC2F30A0202F58062B2F5006F28BFDA
:1052600001339BB20AEBC80A03F07F0300934FF6A9
:1052700080730222AC4920460EF0E6FD9423009391
:10528000AA4B0022AA4920460EF0DDFCBAF1FF0F1E
:1052900040F31781226D138A43F0200313824FF4E9
:1052A000006300934CF6FF730022A24920460EF0E3
:1052B000CBFD4FF4005300934DF6FF7300229E493F
:1052C00020460EF0C1FD6B7B012B00F00581AB7811
:1052D00043F010030093FC2300224FF4C02120462A
:1052E0000EF0FFFC731EDBB200224FF400312046AB
:1052F0000EF076FC6B78072B0CBF082300230122ED
:10530000242120460EF06CFCEB7A03F00303032B00
:105310000CBF8A4B8A4B00228A4920460EF0F1FBD3
:105320000022894920460DF0D4FF20F4FF5020F0E0
:105330001F00B9F1090F08BF40F001002A791202DD
:1053400002F4F852EB78DB00DBB21A436B795B00B6
:1053500003F006031343034300227B4920460EF06B
:10536000D0FBAA796B781B0343EA822300936FF486
:1053700074430022202120460EF065FCB5F8093068
:1053800023B96FF07E036B720023AB72B5F809305E
:1053900002224FF4C02120460EF090FB02226B49FE
:1053A00020460DF0BEFF236DDB7B4B4500F09E8059
:1053B000032800F09F80B9F1090F00F0A080644B32
:1053C0000022644920460EF09CFB41F63C7300220B
:1053D0004FF4102120460EF071FB142301225E4988
:1053E00020460EF0FDFB0E2302225C4920460EF003
:1053F000F7FB812300225A4920460EF0F1FB0223DD
:105400000022442120460EF0EBFB01212046FFF74D
:10541000F5FC4FF0320B4FF01408002744264046AD
:105420000FF0B3FD3A46314620460DF07AFF10F0FA
:10543000020F40F0B5800BF1FF3313F0FF0BEED1FC
:105440006FF00100DEE0226D138A43F060031382E7
:105450004FF4C05300936FF4405300223549204667
:105460000EF0F1FB40F206330022334920460EF0E5
:1054700048FB00231A463B4920460EF042FB3A4BBC
:105480000022294920460EF03CFB9D230093274B28
:105490000022274920460EF0D6FB0AE72A7B214B43
:1054A00033F812304FF4356202FB03F2930CC2F36F
:1054B000CA1202F58062B2F5006F28BF01339BB2B9
:1054C000D0E64FF4205300934CF6FF7300221949A5
:1054D00020460EF0B9FCECE6AB780093EC230022FA
:1054E0004FF4C02120460EF0FCFBFBE603287FF4BE
:1054F00062AF58E002212046FFF780FC5BE71B4BC0
:105500000022144920460EF0FCFA40F63C730022BB
:105510004FF4102120460EF0D1FA5EE768660200D3
:10552000CF4FFCFF886F010014000E0000FFFF3F0B
:1055300018000E0008000B000C000E00CC355FAF09
:105540004C585FAF0C0006000800010030000F004F
:105550003411071C1C00070050000700180007004A
:105560000800090010000E000A5A0C003400011C4B
:105570004FF4807300934FF6FF73002223492046B7
:105580000EF062FC226D138A43F0080313821CE0C4
:1055900000220092FE231E4920460EF0A2FB1EE0D0
:1055A000236D83F80F902B79093BDBB20F2BEFD8DB
:1055B000236D1B7A012BDBD049462046FEF7EAFE1D
:1055C000226D138A23F0080313824FF4C84300931B
:1055D00048F2FF1300220E4920460EF035FCBAF1C6
:1055E000400FCCBF4FF000534FF0A05300936FF02B
:1055F0007F430022074920460EF025FB012120466B
:10560000FFF708FD03B0BDE8F08F00BF08000B00F6
:105610001800030010000600F0B583B005460E46E2
:10562000036D002B51D02C6D0023A3730222228224
:1056300023756375E3736372A37204212846FEF732
:105640003FFE074605212846FEF73AFE0FB1002827
:1056500040D120212846FEF733FE354B98420CBF3F
:1056600001230023237216F0100F42D116F0200FF1
:1056700045D116F0400F48D116F0800F4CD1A37AD7
:105680000BB98523A372637A0BB9742363721F214C
:105690002846FEF715FE20731E212846FEF710FE51
:1056A00010F03F0012BF60732E236373637B0022F0
:1056B000204928460EF094FA35212846FEF700FED0
:1056C000034678BB002003B0F0BD282007F0FEFFA2
:1056D0002865A8E74FF4007300934FF6FF7300228C
:1056E000154928460EF0B0FB238A43F010032382AD
:1056F000AFE706212846FEF7E3FD2060B6E7072165
:105700002846FEF7DDFD6060B3E708212846FEF776
:10571000D7FD000C6072AFE709212846FEF7D0FDE7
:10572000A072ACE70022054928460EF0EAF9C9E765
:10573000400200101400090008000B0004000900DA
:105740002DE9F04F91B0064615461C469C2900F203
:105750009F80DFE811F0540A5F0AA300A700C00091
:105760004C0192016F015601A201AD01B501BD01CD
:10577000C501CD01D501D901E10172028002850286
:105780008F0294029902A202A702DD02FA02050327
:1057900010031A03520348033E0324033103810319
:1057A000FC012F023D02450259027D098209610375
:1057B0009F03A303AC03B103DB03E503ED0317046D
:1057C00023042E0457033904420454046D047E0458
:1057D000C004CA04F004FF041A05080524056A057C
:1057E0008205A205D105E505EE050A06F705430782
:1057F0008507D307D907E407FD071D0827083108E7
:105800005F0868086E087708840891089B08A40858
:10581000AD08B808C308C908EC08F70802090D0963
:105820004E09590972098809FD09070A120A670A0F
:105830001C0A490A7707C609E709D50ACA0A740A81
:105840007F0A8A0A950AA00AAB0AB60ABF0AB50CF3
:10585000EF0C2A0D4D0DF90D0E0EFD0AC10BF40BC8
:10586000FF0B040C090C140C270C320C470C5C0CBD
:10587000980C9D009D009D009D009D009D009D0039
:105880009D00640D750DC20EBF0DB40DD30DCA0D74
:105890004FF0FF35284611B0BDE8F08F43689847B8
:1058A0000025F7E70222B4490DF03BFD032801D89B
:1058B0000025EFE70FF04FFB04460223019300257C
:1058C00000952B462A46294630460DF07AFC2046A4
:1058D0000FF046FBDEE7002C01F00286247814F07E
:1058E0001D0F61D014F0010F23D014F0020F4FF000
:1058F000020301934FF000020092134614BF0D21E2
:1059000003210DF05EFC0322442130460DF009FD19
:1059100010F0080F08BF0025BCD00223019300211E
:1059200000910B460A4630460DF04BFC4FF0FF3518
:10593000B0E714F0080F11D114F0100F21D114F0BA
:10594000020F4FF0020301934FF000020092134642
:1059500014BF102109210DF034FCD4E700210EF012
:10596000E5F814F0020F4FF0020301934FF000022C
:105970000092134614BF0F21072130460DF021FC81
:10598000C1E701210EF0D2F814F0020F4FF002032C
:1059900001934FF000020092134614BF0E2105211F
:1059A00030460DF00EFCAEE714F0200F0FD014F0CF
:1059B000020F4FF0020301934FF0000500952B46B4
:1059C0002A4614BF11210B210DF0FBFB62E714F0F6
:1059D000020F4FF0020301934FF0000500952B4694
:1059E0002A4614BF0C2101210DF0EBFB52E7002CDD
:1059F00001F079852368002228210EF082F8002525
:105A000048E7236800225D490EF07BF863680022B6
:105A10005B4930460EF075F8A368002259493046BC
:105A20000EF06FF8E3680022574930460EF069F82F
:105A300000252FE7002C01F0598523886568032D88
:105A400001F25785DFE805F002070D1300224F49E8
:105A50000EF034F81EE702224C490EF02FF8002514
:105A600018E700224A490EF029F8002512E7022221
:105A700047490EF023F800250CE7002C01F03C8587
:105A800023785B0003F0060300936FF00603002207
:105A900040490EF0D8F80025FCE64FF4803300931F
:105AA0004FF0FF3300223C490EF0CDF80025F1E61F
:105AB000002C01F02485036D1B7B23700025E9E693
:105AC000002C01F01F85036D5B7A23700025E1E651
:105AD000002C01F01A85036D9B7A23700025D9E60E
