:020000040000FA
:10000000802200201DCA0000254B010009CA000003
:1000100009CA000009CA000009CA00000000000067
:10002000000000000000000000000000D1CB000034
:1000300009CA00000000000031CB000009CA00001E
:1000400075CE000075CE000075CE000075CE0000A4
:1000500075CE000075CE000075CE000075CE000094
:1000600075CE000075CE000075CE000075CE000084
:1000700075CE000075CE000075CE000075CE000074
:1000800075CE000075CE000075CE000075CE000064
:1000900075CE000075CE000075CE000075CE000054
:1000A00075CE000075CE000075CE000075CE000044
:1000B00075CE000075CE000075CE000075CE000034
:1000C00075CE000075CE000075CE000075CE000024
:1000D00075CE000075CE000075CE000075CE000014
:1000E00075CE000075CE000075CE000075CE000004
:1000F00075CE000075CE000075CE000075CE0000F4
:1001000053B94AB9002908BF00281CBF4FF0FF317E
:100110004FF0FF3000F00CB8ADF1080C6DE904CEE3
:1001200000F010F8DDF804E0DDE9022304B07047C8
:10013000704700BF034613F8012B002AFBD1181AA1
:10014000013870472DE9F04786468C460846089EE0
:10015000154674461946002B40F0C2808542B2FA1B
:1001600082F245D94AB1C2F1200300FA02FC2EFA0C
:1001700003F3954043EA0C0C94404FEA154EA8B2A5
:10018000BCFBFEF8230C0EFB18CC08FB00F943EA7D
:100190000C43994528D9EB1808F1FF3704D299454B
:1001A00002D9A8F102072B44A3EB0903A4B2B3FBC5
:1001B000FEFC0EFB1C330CFB00F044EA0344A0429F
:1001C00014D92C190CF1FF3304D2A04202D9ACF19E
:1001D00002032C44241A43EA07401EB1D4400023F2
:1001E00034607360BDE8F0874746DDE76346F1E7BA
:1001F00092BB431B01214FEA154EAFB2B3FBFEFC8D
:10020000200C0EFB1C330CFB07F840EA0343984517
:1002100062D9EB180CF1FF3004D2984502D9ACF149
:1002200002002B44A3EB0803A4B2B3FBFEFC0EFBBD
:100230001C330CFB07F744EA0344A7424ED92C19A0
:100240000CF1FF3304D2A74202D9ACF102032C44D3
:10025000E41B43EA0040C0E7C2F1200320FA03F1A7
:10026000954090402EFA03F303434FEA154EAFB288
:10027000B1FBFEFC0EFB1C10190C0CFB07F841EA4D
:100280000041884504FA02F422D969180CF1FF30C4
:1002900004D2884502D9ACF102002944A1EB08013F
:1002A0009BB2B1FBFEFC0EFB1C110CFB07F743EAF3
:1002B00001439F420ED9EB180CF1FF3104D29F424B
:1002C00002D9ACF102012B44DB1B41EA004192E769
:1002D0006046E3E76146F7E76046A3E76346B7E7B2
:1002E000834206D916B9002108467BE7C6E900E03B
:1002F000F9E7B3FA83F78FB9834201D3724508D87F
:10030000BEEB020460EB030301209C461EB90021F2
:1003100068E73846FAE7C6E9004CF8E7C7F1200C71
:10032000BB4022FA0CF41C432EFA0CF120FA0CF319
:10033000B84001434FEA14490EFA07F5B3FBF9F848
:100340001FFA84FE09FB18300B0C08FB0EFA43EA77
:1003500000439A4502FA07F240D9E31808F1FF304A
:1003600004D29A4502D9A8F102002344A3EB0A0360
:1003700089B2B3FBF9F809FB183308FB0EFE41EA1A
:1003800003418E452CD9611808F1FF3304D28E4504
:1003900002D9A8F10203214443EA0040A0FB0298DD
:1003A000A1EB0E014145CE46434602D306D14D4551
:1003B00004D2B9EB020E68EB04030138002EA6D07C
:1003C000B5EB0E0261EB030101FA0CFC22FA07F314
:1003D0004CEA0303F940C6E9003198E74046C5E717
:1003E0004346D9E72DE9F04784B0044683685D6948
:1003F000D1F808A00B6803934A6804AB43F8082DB2
:100400006F6B00224F21B847074618B1384604B039
:10041000BDE8F087A3685A6994F94C30002B3CDBA7
:10042000576B01AB002257212046B847A8BB9DF867
:1004300007209DF806301B0443EA02639DF8042060
:1004400013439DF8052043EA0223BAF1000F31D18E
:1004500003F5783303F5207303934FF0010AA36883
:100460005F690DF1020300227B2120467E6BB047BD
:1004700094F94D30012B4ED094F94C30012202FA00
:1004800003F3BDF8022022EA030204AB23F80E2D89
:100490007F6B00226B212046B847BAF1000F4AD18A
:1004A0006D6B00231A461F212046A84707460028E7
:1004B00050D1ABE7039AD31A98464FEAE3794FEA53
:1004C0004912580142EAD361C01A61EB09014B029B
:1004D00043EAD053420212EB080043EB09018B01BF
:1004E00043EA90638201121A63EB010316461F462A
:1004F000314A002316EB080047EB0901FFF700FE25
:10050000B0F57F7FABDDA3685F69B0F57F70A8D0E1
:1005100013F0B6FEA5E794F94C3001229A40BDF8DD
:1005200002301A4304AB23F80E2D7F6B00226B219F
:100530002046B847B1E76E6B03AB00220521204689
:10054000B047074630B96D6B002301221F212046BA
:10055000A847074694F94C30002BFFF657AFA36825
:100560005D696E6B01AB00227B212046B04794F998
:100570004D308BB194F94C30012202FA03F3BDF8EF
:10058000042022EA030204AB23F80C2D6D6B002239
:100590006B212046A84739E794F94C3001229A4054
:1005A000BDF804301A4304AB23F80C2D6D6B002208
:1005B0006B212046A84729E70098E00EF0B583B0EC
:1005C0000368002B37D01F4A13601E4B1B6842681C
:1005D0001A6082685A6000228DF803201B681C682C
:1005E00001AB04220DF103010120A0479DF8073063
:1005F0009DF80610090441EA03619DF8043019438F
:100600009DF8053041EA03210F4A104B9A4216D259
:100610000C4B1F6813464FF0FF3000260B4D1A6835
:100620004A405C68224204BFBB6030461C33AB4288
:10063000F5D303B0F0BD034B054A1A60C5E74FF090
:10064000FF30F6E7D8050020B4790100087A0100F0
:10065000DC05002008B5044B1B689A681269526AD1
:1006600001461846904708BDD805002008B5044B40
:100670001B689A681269126801461846904708BDBF
:10068000D805002010B582B002AB23F8020D054A50
:10069000106882681269D46A00221B21A04702B048
:1006A00010BD00BFD805002010B582B002AB23F802
:1006B000020D054A106882681269D46A00221D2161
:1006C000A04702B010BD00BFD805002038B5054BCB
:1006D0001C68A3681B695D6813460A4601462046EC
:1006E000A84738BDD805002038B5054B1C68A3685D
:1006F0001B699D6813460A4601462046A84738BD37
:10070000D805002010B582B002AB03F8010D054AF0
:10071000106882681269D46A00220421A04702B0DE
:1007200010BD00BFD805002010B582B002AB43F861
:10073000040D054A106882681269D46A00220521F6
:10074000A04702B010BD00BFD805002038B5054B4A
:100750001C68A3681B69DD6A03460022322120461B
:10076000A84738BDD805002008B5044B1B689A6817
:100770001269526901461846904708BDD805002005
:1007800010B5054B186883681B69DC6A00231A469C
:100790000321A04710BD00BFD805002008B5044BB9
:1007A0001B689A681269126A01461846904708BD8C
:1007B000D805002000290DDD10B4431E1944104651
:1007C000054C13F8012F5040205C8B42F9D15DF8A5
:1007D000044B7047104670474867010038B5054B19
:1007E0001C68A3681B69DD6813460A46014620465B
:1007F000A84738BDD805002010B582B002AB43F839
:10080000040D054A106882681269D46A00227421B6
:10081000A04702B010BD00BFD805002010B582B0BF
:10082000002202AB43F8042D044908688168096975
:10083000CC6A7621A047019802B010BDD8050020EF
:1008400010B582B0002202AB23F8022D05490868DA
:1008500081680969CC6A7A21A047BDF8060002B018
:1008600010BD00BFD80500209829024818BF0020FD
:10087000704700BF4069010000B583B0036DDB7BAA
:10088000012B0BD0032B10D10091052304224FF430
:10089000F01111F074F803B05DF804FB009105232A
:1008A0000022054911F06BF8F5E7009105230022BD
:1008B000642111F064F8EEE70400180010B5044656
:1008C000036DDB7B012B13D0032B1DD1F023002202
:1008D000124911F02BFC00224FF4F011204611F0C8
:1008E0006EF8236D1A7BA2B1C0F30900588410BDC5
:1008F0000F230022094911F019FC00224FF4C01106
:10090000204611F05CF8ECE700224C2111F057F87A
:10091000E7E700F07F005884E9E700BF240001000A
:1009200038B5044600231A464FF4202111F01DFC6F
:1009300000231A460849204611F0F8FB074D002312
:100940001A462946204611F0F1FB022300222946CF
:10095000204611F0EBFB38BD14000A0004000A0029
:1009600008B5012902D0052907D008BD41F62203A8
:100970000022054911F0F9FBF7E74FF4007300225C
:10098000014911F0F2FBF0E70400110070B50446D4
:100990000E460C4D01230022294611F0E6FB33469A
:1009A00000220949204611F0E0FB022300222946DB
:1009B000204611F0DAFB00220449204610F0E9FF3E
:1009C00070BD00BF08000B0004000B0010000B00FE
:1009D00038B504460B4600220A4911F0C6FB0A4D01
:1009E000882300222946204611F0A0FB00231A4646
:1009F0002946204611F09AFB00220449204610F0B7
:100A0000F0FF38BD0C000A0004000A0008000A00CC
:100A100070B504460B461546B1F5807F34BF0026FD
:100A2000202600220B4911F0A0FB2B4600220A4988
:100A3000204611F07BFB094D46F090030022294629
:100A4000204611F073FB00231A462946204611F078
:100A50006DFB70BD0C000A0010000A0004000A00C3
:100A600070B504460D461646002240F20B11FFF702
:100A7000CFFF4FF482712046FFF7AAFF00F01F025C
:100A80004FF482712046FFF7C3FF236D5A8A154346
:100A90005D82236D5B8A00224FF42021204611F0F5
:100AA00064FB334600220249204611F03FFB70BD33
:100AB00014000A00F8B5044600224FF4F81110F0B3
:100AC00090FF054600224421204610F062FF0646B2
:100AD000236D00225A8483F82420DA611A849A62F2
:100AE000236D9C62236DD861226DD37D03F00303D7
:100AF000032B79D016F4806F05D092F8243043F0A0
:100B0000040382F8243015F0800F74D115F0010F22
:100B100040F0A38015F0400F0BD0636A13B1206D35
:100B20001C3098474FF4C07302224421204611F034
:100B30001CFB15F0080F00F0EA80236D002283F8FB
:100B40002420236DDB7B002B40F09580236DDE613C
:100B500016F4802F00F0A980226D92F8243043F023
:100B6000080382F824304FF4802716F0805F08D005
:100B7000226D92F8243043F0100382F8243047F0BD
:100B8000805716F4005F06D0226DD37D03F0030377
:100B9000032B00F0968016F4804F40F09E8047F4BF
:100BA000DE4300224421204611F014FB206D438CCB
:100BB000002B40F0A180C37D03F00303032B00F062
:100BC0009B80C36923F49043C361226DD36943F4CE
:100BD0008053D361E36913B1206D1C309847236DB6
:100BE000002283F824208BE010F4005F1CBF45F046
:100BF0000805EDB27EE7276D00224821204610F05F
:100C0000DEFE3884236D9A7D1AB1DA6912F0040F82
:100C100003D11B8C03F460638BB1042300224421B5
:100C2000204611F083FA4FF46063002248212046E9
:100C300011F09BFA236A13B1206D1C309847236D85
:100C40001B8C13F4807F3FF461AF4FF4807300225C
:100C50004821204611F089FA58E7F8230022442160
:100C6000204611F063FA2369002B3FF453AF206D47
:100C70001C3098474EE73B49204610F0B2FE236DEA
:100C8000DB7B032B08BFC0F3071010F0010F18BF68
:100C900046F4804610F0020F18BF46F4005610F0DC
:100CA000040F18BF46F4806650E716F4806F1FBF2C
:100CB000226D92F8243043F0040382F82430002798
:100CC00053E792F8243043F0020382F82430236D76
:100CD00000225A8447F4004761E72046FFF7EEFD03
:100CE00010F4004F3FF45BAF226D92F8243043F0D4
:100CF000010382F8243052E763690BB11C30984736
:100D0000236DDB7B53B9236D002283F8242015F07B
:100D1000100F07D115F0200F14D1F8BD204611F0A7
:100D200047FAF0E7104B00224421204611F052FA16
:100D3000E36913B1206D1C309847236D002283F8BE
:100D40002420E7E7094B00224421204611F042FA13
:100D5000A36913B1206D1C309847236D002283F8DE
:100D60002420DAE72400010000B405340004221036
:100D700038B5044689B900222C2110F00AFE054638
:100D800001224FF46021204610F02BFE2B1A002286
:100D90002C21204611F01EFA38BD00222C2110F023
:100DA000F8FD054601220549204610F01AFE2B1ACF
:100DB00000222C21204611F00DFAEDE7040001007D
:100DC00070B506460C46084D0022294610F0E1FD9C
:100DD000000D0005C4F313030343002229463046E7
:100DE00011F0F8F970BD00BF0800010038B50546E4
:100DF0000C4600224FF4A02110F0CBFD0B4B03401A
:100E000014F0010F18BF43F4802314F0020F18BF31
:100E100043F4104314F0040F18BF43F012030022F0
:100E20004FF4A021284611F0D5F938BDC00FE0FFDE
:100E300038B505460C460B6800220B4911F0CAF97B
:100E4000636800220949284611F0C4F9A36800220A
:100E50000749284611F0BEF9E368002205492846F3
:100E600011F0B8F938BD00BF0C00020010000200FC
:100E7000140002001800020038B505460C460B6845
:100E800000220B4911F0A6F963680022094928469F
:100E900011F0A0F9A36800220749284611F09AF939
:100EA000E36800220549284611F094F938BD00BFD7
:100EB0001C000200200002002400020028000200A2
:100EC0002DE9F0470446052940D0264D2E46264FF1
:100ED000DFF8D880DFF8D890DFF8D8A0234B0022C5
:100EE0002349204611F076F9534600222149204635
:100EF00011F070F94B4600221F49204611F06AF9A3
:100F0000434600221D49204611F064F93B46002269
:100F10001B49204611F05EF933460022194920464C
:100F200011F058F92B4600221749204611F052F9CA
:100F3000164B00221649204611F04CF9154B0022A1
:100F40001549204611F046F9BDE8F087134D144EBF
:100F5000144FDFF86480DFF86490DFF864A0124B70
:100F6000BDE700BFB5AF02007DAF0200FEA80200E2
:100F7000380003003C00030040000300440003006D
:100F8000480003004C000300500003004002001022
:100F90001C00030089A46D1B20000300F5CF010095
:100FA000B5CF010036CF0100FDC001003EAF020009
:100FB000FEA5020036AC02007EC70100BEC60100DD
:100FC0003EC4010008B500231A46024911F002F997
:100FD00008BD00BF0400070038B504460D460023D5
:100FE0001A460A4911F0F6F800231A464FF4E02198
:100FF000204611F0EFF805B938BD4FF0E05300225C
:101000000349204611F0E6F8F6E700BF4800070064
:1010100014000700F0B583B0046DE47B032C0CBF13
:101020004FF4981C4FF4901C9C18B4F5806F19DA9B
:101030001D4616460F4604467F2B15D94FEA1C4322
:1010400000220D4911F0C6F82B4600220B4920461C
:1010500011F0C0F80097334600224FF4E811204603
:1010600010F08DFC03B0F0BD009113462A46614696
:1010700010F085FCF6E700BF04001F0008001F0009
:10108000F0B583B05C18B4F5806F24DA1C461746BF
:101090000E4605467F2B15D9142300220F4911F067
:1010A00099F8234600220E49284611F093F800973C
:1010B000334600224FF4E811284611F02CF80020A6
:1010C00003B0F0BD00920B4622464FF4A01111F080
:1010D00022F80020F4E74FF0FF30F1E704001F0092
:1010E00008001F0000B583B0052904D009290BD0E2
:1010F00003B05DF804FB402300936FF4005300221B
:10110000064911F0E0F8F3E74FF4015300936FF450
:1011100000530022014911F0D6F8E9E708000B005E
:1011200070B582B004460E46134D4FF0082300936D
:101130004FF0FF330022294611F0C5F84FF060133D
:1011400000934FF0FF3300222946204611F0BBF8F0
:101150000A4B00934FF0FF3300224FF4E02120466A
:1011600011F0B1F80EB902B070BD054B002205496F
:10117000204611F02FF8F6E748000700003C000277
:10118000001101011400070000B583B0054B009366
:101190004FF0FF330022044911F095F803B05DF8D9
:1011A00004FB00BF003C0002040007002DE9F043EF
:1011B00083B004460D461746564E0022314610F0C5
:1011C000E8FB81464FF4704300934FF0FF33002259
:1011D0003146204611F077F8DFF83C8118230022D1
:1011E0004146204610F0C1FF2521204610F0CDFFDA
:1011F0000221204610F0C9FF4FF4FE71204610F086
:10120000C4FFF9B241F48071204610F0BEFF4FF4E4
:101210008071204610F0B9FF0021204610F0B5FF84
:101220000221204610F0B1FF4FF4E071204610F08B
:10123000ACFFE9B241F48071204610F0A6FFC5F37F
:10124000072141F48071204610F09FFFC5F307414C
:1012500041F48071204610F098FF290E41F480710E
:10126000204610F092FF0021204610F08EFF3A2118
:10127000204610F08AFF40F2FF11204610F085FF53
:101280004FF48571204610F080FF0021204610F0B9
:101290007CFF3A21204610F078FF40F201112046F1
:1012A00010F073FF022300224FF43021204610F08B
:1012B0005CFF00231A464FF43021204610F055FF02
:1012C000022012F0CAFF3A21204610F05EFF4FF4D0
:1012D0008171204610F059FF022300224FF4302183
:1012E000204610F042FF00231A464FF430212046DA
:1012F00010F03BFF00231A464146204610F035FF10
:101300004B4600223146204610F064FF03B0BDE892
:10131000F08300BF4400070008000B0010B582B046
:1013200004467F2A12D9803241EAC32141EA0241B0
:1013300000910C4B0022242110F0C5FF00224FF435
:101340000021204610F04DFB02B010BD41EAC32140
:1013500041EA02410091034B0022242110F0B3FF27
:10136000F2E700BF00F400FC30B583B004460D4640
:1013700011F0010F15D000230093EF2302224FF448
:10138000602111F047F8236D1D76236D1B7E5B08ED
:1013900010D06B0800220E49204610F0C7FE03B0A3
:1013A00030BD10230093FF2302224FF4602111F07F
:1013B00031F8E8E701230093FF2300220449204687
:1013C00011F028F8226D137E43F002031376E6E74E
:1013D0002800010070B582B004460D460121FFF7D8
:1013E000BFFA00212046FFF79BFE2046FFF7CCFE08
:1013F000C5F30B0300221549204610F0B6FE032367
:101400000093FF2300221249204611F003F8104EEA
:1014100000252A463146204610F0E3FA10F0010F6D
:10142000F7D12046FFF7CEFD00212046FFF7D4FD7F
:1014300005212046FFF794FA00220649204610F0C5
:10144000D0FA00F03F0002B070BD00BF1C000800E1
:10145000100008001C00070038B505460C46B1F81E
:10146000051049B1FFF7B6FFD4F801300022054955
:10147000284610F0AFFE38BD23780022024910F054
:1014800055FEF1E70C0001001C00070030B583B0E9
:1014900004460D4610230093FF230022064910F056
:1014A000B9FF2B46022D38BF022300222C212046F3
:1014B00010F090FE03B030BD24000F0030B583B0B3
:1014C000044601291DD0022930D001230093FF23B7
:1014D0000022264910F09EFF254D4FF40003009393
:1014E0006FF4807300222946204610F0ECFE0023A2
:1014F00000937F2302222946204610F08BFF03B081
:1015000030BD0521FFF72CFA4FF4817300934FF0A3
:10151000FF3300221749204610F0D5FE0122009229
:10152000FF231349204610F075FFE8E703230093DB
:10153000FF2300220D4910F06DFF0D4D4FF4000305
:1015400000936FF4807300222946204610F0BBFE02
:10155000002300937F2302222946204610F05AFFE1
:1015600005212046FFF7FCF9C9E700BF0400110080
:1015700008001100080009002DE9F04182B005467D
:10158000294C2A4B0022214610F024FE1023009300
:10159000FF2300222146284610F03CFF03244FF091
:1015A0001408234F0026404612F06AFE32463946A0
:1015B000284610F016FA012834D0631E13F0FF04F9
:1015C000F1D16FF00204184E00231A463146284626
:1015D00010F0ACFD012300221549284610F0A6FDAD
:1015E00001230093FF2302223146284610F012FF08
:1015F00000221049284610F0CCF96FF06043984261
:1016000008BF6FF0030400220B49284610F0C1F90F
:101610006FF06043984214BF20466FF0040002B0A0
:10162000BDE8F0810024CEE70C00040001000200B8
:1016300020000400140004001C00040010B582B057
:1016400004464FF4C07300934FF6FF73002207491E
:1016500010F027FF236D1B7A00934FF6E0730022F2
:101660000349204610F01DFF02B010BD08000B001A
:101670001F00110030B583B0044611F0010F1FD0D8
:101680000D464FF4107300936FF47C6300224FF407
:10169000A02110F018FE4FF4040300934FF0FF3325
:1016A00000221849204610F00EFE15F0020F1AD144
:1016B0004FF4887300221449204610F08BFD10E08F
:1016C000002500956FF47C632A464FF4A02110F0AA
:1016D000FAFD00954FF6FF632A460B49204610F0AD
:1016E000E0FE03B030BD084D084B002229462046DD
:1016F00010F070FD4FF4887300222946204610F048
:1017000069FDEEE7040011001600110010010F0042
:10171000F0B583B00446012909D0142012F0B0FDC1
:101720002046FFF729FF0546284603B0F0BD0F4EBF
:101730000022314610F043F9074640F205130093AA
:101740004FF6FF7300223146204610F0AAFE142007
:1017500012F096FD2046FFF70FFF0546002200928B
:101760003B463146204610F09CFEDDE7480007006E
:1017700000B583B0012A09D0CB43002200929BB26E
:10178000064910F08EFE03B05DF804FB00914FF6A1
:10179000FF730022014910F084FEF4E70C000500FD
:1017A000F0B583B004460F4616461D4648F2400386
:1017B00000934FF6FF730022184910F072FEAA1929
:1017C00043F201039A4215DC7F2D1DD91523002217
:1017D0001349204610F0FEFC2B46002211492046FA
:1017E00010F0F8FC0097334600224FF4E811204631
:1017F00010F0C5F80022009247F6BF730749204653
:1018000010F04FFE03B0F0BD009733462A464FF468
:10181000A811204610F0B3F8ECE700BF0400110057
:1018200004001F0008001F0070B506460C46154650
:101830000E4B02220E4910F0CDFC0F2DA8BF0F2534
:10184000631E032B28BF04241023234100220949CF
:10185000304610F0BFFC631E9B0005FA03F3002224
:101860000549304610F0B6FC70BD00BF7408D200C8
:101870001000110028000700180008002DE9F04FA3
:1018800083B004460D4691F800900B79182B14D8BC
:10189000CF78182F94BF00270127FFB2EB79012BD7
:1018A0000CBF102100216B78013B062B10D8DFE81C
:1018B00003F0060F0F120C0F09000127EDE74FF0A0
:1018C000400A0AE04FF0480A07E04FF0800A04E0BF
:1018D0004FF4807A01E04FF0200A226D538A23F002
:1018E000E0035382236DEA791A732E7BB31C012621
:1018F0009E401FFA86F8226DC74B03FB08F3DB0BF3
:101900009382236DEA7ADA752B7A5B0103F0200368
:101910006A7B43EA0243EA7A120302F43042134339
:101920000B430093BD4B00221021204610F0CBFC4E
:10193000002F40F0F680EB7AF3B16B7B012B40F285
:101940001C812A7BB64B33F812201201D30AC2F352
:101950000A0202F58062B2F5006F28BF01339BB224
:101960000AEBC80A03F07F0300934FF6807302224C
:10197000AC49204610F095FD94230093AA4B002219
:10198000AA49204610F09FFCBAF1FF0F40F30881EE
:10199000226D538A43F0200353824FF480630093F7
:1019A0004EF2FF730022A249204610F07AFD6B7BB5
:1019B000012B00F00081AB7843F010030093FC236F
:1019C00000224FF4C021204610F024FD731EDBB22C
:1019D00000224FF40031204610F0A8FB6B78072B53
:1019E0000CBF0823002301222821204610F09EFB73
:1019F000904B00229049204610F0ECFB00228F49CA
:101A000020460FF0C6FF20F4FF5020F01F00B9F170
:101A1000090F08BF40F001002A79120202F4F852BF
:101A2000EB78DB00DBB21A436B795B0003F0060353
:101A30001343034300228149204610F0CBFBAA79CF
:101A40006B781B0343EA822300936FF474430022F4
:101A50002421204610F037FCB5F8093023B96FF087
:101A60007E036B720023AB72B5F8093002224FF48B
:101A7000C021204610F079FB0222714920460FF068
:101A8000B0FF236D1B7C4B4500F09F80032800F0C6
:101A9000A080B9F1090F00F0A1806A4B00226A49C9
:101AA000204610F097FB41F63C7300224FF41021C2
:101AB000204610F05AFB142301226449204610F0FE
:101AC00035FB0E2302226249204610F02FFB8123B2
:101AD00000226049204610F029FB02230022442105
:101AE000204610F023FB01212046FFF7E7FC4FF0D2
:101AF000320B4FF0140800274426404612F0C0FB7A
:101B00003A46314620460FF06CFF10F0020F40F0CD
:101B1000AB800BF1FF3313F0FF0BEED16FF0010040
:101B2000CFE0226D538A43F0600353824FF4406349
:101B300000936FF4C05300223D49204610F0C3FBD0
:101B400040F2063300224449204610F043FB0023B4
:101B50001A464FF00E11204610F03CFB3F4B00227E
:101B60003049204610F036FB9D2300932E4B002277
:101B70002E49204610F0A7FB19E72A7B284B33F8A3
:101B800012304FF4356202FB03F2930CC2F3CA1217
:101B900002F58062B2F5006F28BF01339BB2DFE629
:101BA0004FF4A05300934EF2FF73002220492046C9
:101BB00010F077FCFBE6AB780093EC2300224FF4A7
:101BC000C021204610F026FC00E703287FF461AF17
:101BD0004DE002212046FFF771FC5AE7204B00221E
:101BE0001949204610F0F6FA40F63C7300224FF4F3
:101BF0001021204610F0B9FA5DE74FFA89F120462E
:101C0000FFF770FA40E000220092FE2315492046BB
:101C100010F000FC42E000BF68660200CF4FFCFFFE
:101C20007869010012000E0000FFFF3F16000E0051
:101C300008000B00CC355FAF0C000600140001005B
:101C400030000F003411071C1C0007005000070073
:101C500018000700080009000C000E000A5A0C00CA
:101C60003400011C18000300236D83F810902B79B9
:101C7000093BDBB20F2BC6D8236D5B7A012BBCD09E
:101C800049462046FFF71CF94FF4C843009348F239
:101C9000FF1300220C49204610F003FCBAF1400F5C
:101CA000CCBF4FF000534FF0A05300936FF07F4331
:101CB00000220649204610F006FB01212046FFF7CE
:101CC00027FD03B0BDE8F08F1800030010000600E8
:101CD0002DE9F04F91B0064615461C469C2900F2AE
:101CE0009F80DFE811F06D0A780AA300A700BE000C
:101CF00048018E016B0152019E01A901B101B90198
:101D0000C101C901D101D501DD016E027C02810250
:101D10008B02900295029E02A30209031B03260375
:101D200031033B03730369035F0345035203C1039C
:101D3000F8012B0239024102550296099B098203E0
:101D4000DF03E303EC03F103FB0305040D04370495
:101D500043044E0478035904620474048D049E0401
:101D6000E004EA040B051A0535052305510597051E
:101D7000AF05CF05E405F80501061D060A06730741
:101D80009F07ED07F307FE071708370841084B08C0
:101D900079088208880891089E08AB08B508BE0833
:101DA000C708D208DD08E308060911091C0945091E
:101DB000670972098B09A109160A200A2B0A800AF1
:101DC000350A620A9107DF09000AEE0AE30A8D0A62
:101DD000980AA30AAE0AB90AC40ACF0AD80AD80BCD
:101DE000120C4D0C700C290D3E0D190B9D009D0021
:101DF0009D009D009D009D009D009D009D009D00FB
:101E00009D009D009D009D009D009D009D009D00EA
:101E10009D00870CA50CCE0DEF0CE40C030DFA0C05
:101E20004FF0FF35284611B0BDE8F08F4368984762
:101E30000025F7E70222B7490FF0D3FD032801D8A8
:101E40000025EFE712F002FA0446002500952B4624
:101E50002A462946304610F05EF9204612F0FBF97A
:101E6000E0E7002C01F01085247814F01D0F65D0F8
:101E700014F0010F26D014F0020F4FF00002009270
:101E8000134614BF0D21032110F045F9032244210C
:101E900030460FF0A6FD10F0080F45D100229D49F5
:101EA00030460FF076FDB0F5502F18BF0025B9D1A0
:101EB000002100910B460A46304610F02CF94FF0F5
:101EC000FF35AFE714F0080F0ED114F0100F1BD13F
:101ED00014F0020F4FF000020092134614BF1021BD
:101EE000092110F018F9D1E70021FEF741FF14F0A5
:101EF000020F4FF000020092134614BF0F2107217A
:101F0000304610F008F9C1E70121FEF731FF14F067
:101F1000020F4FF000020092134614BF0E2105215C
:101F2000304610F0F8F8B1E7002100910B460A4660
:101F3000304610F0F0F84FF0FF3573E714F0200F43
:101F40000CD014F0020F4FF0000500952B462A46E6
:101F500014BF11210B2110F0DEF863E714F0020F1B
:101F60004FF0000500952B462A4614BF0C21012195
:101F700010F0D1F856E7002C01F089842368002284
:101F80002C2110F027F900254CE723680022624934
:101F900010F020F9636800226049304610F01AF909
:101FA000A36800225E49304610F014F9E36800226D
:101FB0005C49304610F00EF9002533E7002C01F0A3
:101FC000698423886568032D01F26784DFE805F0E2
:101FD00002070D130022544910F0C7F822E702222D
:101FE000514910F0C2F800251CE700224F4910F0BB
:101FF000BCF8002516E702224C4910F0B6F800257F
:1020000010E7002C01F04C8423785B0003F00603FA
:1020100000936FF006030022454910F054F90025A3
:1020200000E74FF4803300934FF0FF330022414923
:1020300010F049F90025F5E6002C01F03484036D19
:102040005B7B23700025EDE6002C01F02F84036DEF
:102050009B7A23700025E5E6002C01F02A84036DAD
:10206000DB7A23700025DDE6002C01F02584036D6A
:102070001B6823600025D5E6002C01F02084036D49
:102080005B6823600025CDE610F092F80025C9E6D4
:10209000002C01F017842168FEF792FE0025C1E6AE
:1020A000002C01F0128425785DB164684023009310
:1020B000FF230022102110F0ADF9022D07D1F460AA
:1020C00005E000220092BF23102110F0A3F9336D28
:1020D0009D750025A6E6002C01F0FA83656823783B
:1020E0000322154910F022F845B9002200924FF260
:1020F000FF731021304610F0D4F993E64FF481239A
:1021000000934FF0FF3300221021304610F0DBF82F
:10211000002587E630000F00540001005800010040
:102120005C00010060000100180001001C000100BB
:1021300014000100040011000800010000221146F3
:102140000FF027FCB268136843405268134214BF73
:102150004FF0FF35002565E6002C01F0BC832178A7
:10216000FFF702F900255DE63AB9002200924FF22E
:10217000FF73AE4910F095F954E64FF400630093F5
:102180004FF6FF730022A94910F08BF9002549E6AC
:1021900002F001024FF6FF734FF2FF71002A08BFF1
:1021A0000B46D20215F0020F12BF42F4805223F404
:1021B00080539BB2009200229C4910F072F90025D6
:1021C00030E62AB99A4B02229A4910F003F829E620
:1021D000994B022297490FF0FDFF002522E6114698
:1021E000FEF704FE00251DE6002C01F07783002297
:1021F00092490FF0F6FB2070002513E62146FEF70A
:1022000017FE00250EE62146FEF736FE002509E6FC
:1022100001230093FF230022894910F0FBF80025D9
:1022200000E61146FEF74CFE0025FBE5036D1B7A28
:10223000002B37D114230122824930460FF076FF5C
:1022400018230022804930460FF0C4FFE823002203
:102250007E4930460FF0BEFF336D5B8A03F0E0032A
:10226000202B22D0602B2BD0336D1B7E5B0832D00D
:102270000022774930460FF0A2FBC0F3C403093BAC
:102280000F2B01F22E8300F0010000280CBF052166
:102290000921336D5B7A012B29D03046FEF710FE01
:1022A0000025BFE5FFF7CAF9C4E74FF48063009348
:1022B0006FF4C05300226749304610F004F8D3E7AA
:1022C0004FF4406300936FF4C053002261493046DD
:1022D0000FF0F9FFC8E7012300225F4930460FF0F5
:1022E00025FF326D137E43F002031376C0E73046BC
:1022F000FEF7F8FE002595E5002C01F0F582237825
:10230000026DD3751B0303F43043009344F6FF734F
:102310000022102110F0C5F8002583E5002C01F003
:10232000E682238800224FF460210FF01EFF002573
:1023300078E5002C01F0DE8200224FF460210FF0DE
:102340003EFB208000256DE5002C01F0D68223881D
:10235000002242490FF009FF002563E5002C01F03F
:10236000CF8200223D490FF02AFB2080002559E54D
:10237000002C01F0C882A388E288216800914FF404
:10238000B0110FF0C8FE00254CE5002C01F0BE8214
:10239000A388E288216800914FF4B0110FF0EFFAA2
:1023A00000253FE5002C01F0B482E388A288216873
:1023B000FEF730FE002535E5002C01F0AD82E38804
:1023C0002268A188FEF75CFE00252BE511460FF080
:1023D00016FF002526E5002C01F0A18223796288F2
:1023E0002188FEF79BFF00251CE5002C01F09A8256
:1023F000036DDB7B012B0CD0032B10D10C224FF48F
:10240000F0110FF0DCFA00B240F30C03238000253A
:1024100008E5002212490FF0D2FA00B2F4E70022D8
:1024200010490FF0CCFA00B2EEE700BF080011002F
:102430007408D200100011007488D2041C00070038
:1024400004000200500007000C001F0010001F00D5
:102450001400010008000B00280001000400010026
:102460000C00180020000C00002C01F05E820CAB68
:10247000009303230022BB490FF081FA9DF832201C
:102480009DF8313003EB02229DF8303003EB02233C
:1024900013F4801F1CBF6FEA03336FEA133323600A
:1024A0000025BFE4FEF73CFA0025BBE4002C01F058
:1024B0003F826188FEF78EFF20700025B2E421463E
:1024C0000FF09DFA0025ADE4002C01F034820122CA
:1024D00074210FF05EFA20600025A3E4002C01F0C7
:1024E0002D82002274210FF054FA2060002599E417
:1024F00000940523002274210FF041FA002591E495
:10250000002C01F01E82036DDB7B012B14D0032B0A
:1025100019D116224FF4F0110FF051FAC0F30D004B
:1025200083B213F4005F04D06FEA83436FEA9343EE
:1025300018B22080002575E402228B490FF03FFA83
:10254000C0F30D00ECE7022288490FF038FAC0F31F
:102550000D00E5E700940623002285490FF00FFAED
:10256000637903F00103637100255BE4002C01F043
:10257000EB8101224FF008110FF033FA2070002593
:1025800050E4002C01F0E38100224FF008110FF01D
:1025900028FA2070002545E4002C01F0DB81A28898
:1025A0002168FEF703FE00253CE4002C01F0D581F4
:1025B0002568A48822462946FEF7F8FD21463046C4
:1025C000FEF7E4F92D1A18BF4FF0FF352AE4022A6E
:1025D0000ED0684C00231A46214630460FF0A6FD67
:1025E00002230022214630460FF0A0FD002519E409
:1025F00000230093FE2301225F490FF00BFFE8E761
:10260000002C01F0AD812488E2B24FF48171FEF715
:10261000FFF9220A40F203113046FEF7F9F90025CE
:1026200000E4002C01F09F81DFF858811023009313
:10263000FF23002241460FF0EDFE4FF48271304639
:10264000FEF7C6F900F0E0052A464FF482713046E5
:10265000FEF7DEF945F004024FF482713046FEF7D2
:10266000D7F9022011F0F9FD4FF487713046FEF7DB
:10267000AFF9074640F20F113046FEF7A9F981463F
:102680002A464FF482713046FEF7C2F900250095C4
:10269000EF232A46414630460FF0BCFE47EA0927A1
:1026A0002780FFF7BFBB002C01F06081A278218852
:1026B000FEF7D6F90025FFF7B5BBFEF731F901208B
:1026C00011F0CBFD03230093FF2300222B4930465A
:1026D0000FF0A0FE00231A464FF4881130460FF089
:1026E00025FD012011F0B9FD336D0025DD730222B7
:1026F0005A829D75DD751D74FFF794BB002C01F0A7
:102700003881237803F03F03026D937300221C4944
:102710000FF00CFD0025FFF785BB002C01F02C818C
:10272000036D9B7B23700025FFF77CBB0121FEF727
:10273000F7FC3046FEF728FD01213046FEF710F980
:102740000F2201213046FFF76FF80025FFF76ABB23
:10275000002C01F0148162682168FFF765F80025FC
:10276000FFF760BB29000600140018001C000C00D5
:1027700018000C0004000A000800110004001100F9
:102780001400090048000700002C01F0FB80D64D22
:10279000002229460FF025F9804602230093FF23EB
:1027A0000022294630460FF035FE04230022CF498F
:1027B00030460FF0BBFC012300224FF400213046CD
:1027C0000FF0B4FCCA4F00252A46394630460FF0B8
:1027D00008F910F0010FF7D000224FF00811304631
:1027E0000FF0EDF8054600231A464FF4002130465D
:1027F0000FF09CFC00231A46BC4930460FF096FCB3
:1028000043460022B84930460FF090FC2580002551
:10281000FFF708BB002C01F0B8802379026DD27A53
:102820009B1A07EE903AF8EEE77A9FEDB27A67EEE0
:10283000877AB3EE067A77EE877AC4ED007A0025C0
:10284000FFF7F0BA002C01F0A3802379026D927A91
:102850009B1A07EE903AF8EEE77A9FEDA77A67EEBB
:10286000877AB3EE007A67EE877ADFEDA46A87EEA7
:10287000A67AF0EE087A77EE277AC4ED007A002582
:10288000FFF7D0BA002C01F0868024680121FEF702
:1028900047FC3046FEF778FC01213046FEF760F831
:1028A00021463046FEF7F2FD0025FFF7BBBA0025B2
:1028B0000095EF232A4692490FF0ACFD05213046E2
:1028C000FEF74EF801213046FEF786FB3046FEF754
:1028D00079FBFFF7A7BA00250095EF232A46884920
:1028E0000FF098FDFFF79EBA002C01F05780216889
:1028F000FEF7CCFD0025FFF795BA002281490FF0C5
:102900005EF8C0F30B0510F4006F18BF45F4704576
:102910002DB22580336DB3F91430ED1AFFF782BA6A
:10292000002C01F06D80D4F80490237A99F81320DC
:10293000FF2A00F03F81002B36D1D9F800300093F8
:102940000C23002270490FF0E6FB99F80C30B9F81F
:102950000E20D11899F81220002A5FD199F81000A2
:1029600000280BBF7F224FF480624FF4B0154FF464
:10297000A01599F81300121A023A914200F2208130
:10298000D9F8042000920022294630460FF0C3FBFC
:10299000B9F80E3099F80C20D9F8081000912946A2
:1029A00030460FF0B8FB4AE0D9F80030B9F80E1005
:1029B0009A7A8DF830205A7A8DF831201A7A8DF86B
:1029C0003220DA798DF833209A798DF834205A79CB
:1029D0008DF835201A798DF83620DA788DF8372081
:1029E0009A788DF838205A788DF839201A788DF831
:1029F0003A2000228DF83B208DF83C10090A8DF812
:102A00003D10197B8DF83E10DB7A8DF83F300CAB12
:102A1000009310233C490FF07EFB96E7012A40F01B
:102A2000CC8099F81130002B40F2FF3308BF7F2390
:102A300099F813209B1A023B994200F2C48099F83E
:102A40001020531EDBB2012B40D999F81130591ECA
:102A5000C9B2012964D9042B69D042EA4333002268
:102A60002A4930460FF0B6FBB9F80E30284A02EA80
:102A7000C31299F80C3003F07F0313430022254959
:102A800030460FF0A7FB01230022234930460FF008
:102A90004DFBDFF8888000273A46414630460EF06D
:102AA000A0FF10F0050FF7D00546034600221B4992
:102AB00030460FF03BFB05F03F0525F03003012BBE
:102AC00042D06BB223700025FFF7ACB9336DDB7BCE
:102AD000032B01F02E8099F811305A1ED2B2012A30
:102AE0002CD90122B7E700BF4800070034000700D7
:102AF000040008006666863FCDCCCC3E00007F43D4
:102B000024000F000800020034000100440001000E
:102B100080FF0100480001004C000100500001004E
:102B2000336DDB7B032B0CBF0223012395E7B9F840
:102B30000E10102991D96FF00303C3E70122134649
:102B40008BE70222134688E799F81230012BB8D19F
:102B500099F81120531EDBB2012B1BD9032A0CBF9D
:102B60004FF4A0174FF4B017D9F8042012B199F818
:102B70000C30C3B9D9F808100029A2D0B9F80E302A
:102B8000002B9ED099F80C200091394630460EF06B
:102B9000F6FE96E7336DDB7B032B0CBF4FF49817E3
:102BA0004FF49017E0E700920022394630460EF0CD
:102BB000E6FEDFE76FF0020384E76FF0010381E7D1
:102BC0004FF0FF337EE74FF0FF337BE7237AE17965
:102BD000A279D20042EA41021343627943EA8213A6
:102BE000227943EAC213E27843EA0223A27843EA55
:102BF000C223627843EA02339BB20022CD490FF030
:102C0000B4FA0025FFF70EB9002C00F0FC866378BB
:102C100033B15B08013BDBB223700025FFF702B93B
:102C20000023F9E70022C4490EF0B3FEC0F30B0302
:102C30002380C0F30B4060800022C04930460EF074
:102C4000A8FEC0F30B03A380C0F30B40E08000227A
:102C5000BB4930460EF09DFE2072000C60720022CF
:102C6000B84930460EF095FEC0F30B43A381C0F384
:102C70000B0060810022B44930460EF08AFEC0F39A
:102C80000B43A4F80F30A0730022B04930460EF079
:102C900080FE6074000CA0740022AD4930460EF036
:102CA00078FEC0F30B00A4F8130000256575A57528
:102CB0002A46A84930460EF094FEE075FFF7B2B8F8
:102CC00011460FF03FFA0025FFF7ACB8002C00F0DA
:102CD0009D8623880022A0490FF047FA0025FFF7C0
:102CE000A1B8002C00F09586256835B900231A4656
:102CF0009A490FF03AFAFFF795B86279237943EAD7
:102D0000022323F0F003002294490FF02EFA00254D
:102D1000FFF788B8002C00F07F8623684BB90025A8
:102D200000954FF6FF532A4610210FF0BAFBFFF72C
:102D300079B8002234210FF04DFA4FF4007300935C
:102D40004FF6FF730022102130460FF0AAFB00253A
:102D5000FFF768B8002C00F062866188FDF738FE46
:102D600020700025FFF75EB8002C00F05B86A2788B
:102D70002188FDF74DFE0025FFF754B8784B794ABE
:102D8000012D18BF1346012D774918BF4FF00C11C4
:102D9000026DD27B012A12D0032A17D1A2F5C012EC
:102DA000013A1A444FF4F0110EF009FEC0092080D8
:102DB0002588003518BF01256D42FFF733B8022280
:102DC00019460EF0FCFDC0092080F1E702220EF04A
:102DD000F6FDC0092080EBE7002C00F02686217864
:102DE000FEF748FC0025FFF71DB81146FEF766FB0D
:102DF0000025FFF717B80094042300221C210EF0D1
:102E0000BEFD0025FFF70EB8002C00F0118602224F
:102E100044210EF0D4FDC0F3002020700025FFF700
:102E200001B8002C00F00786002244210EF0D9FDE5
:102E300000F0010020700025FEF7F4BF002C00F028
:102E4000FD85628821880FF0F9FA0025FEF7EABFB8
:102E500000940823002204210FF05DF90025FEF7FD
:102E6000E1BF00940823002204210EF088FD002514
:102E7000FEF7D8BF002C00F0E485238802220C2145
:102E80000FF073F90025FEF7CDBF002C00F0DC85B4
:102E9000238800220C210FF068F90025FEF7C2BF3D
:102EA0002146FDF7E9FC0025FEF7BCBF036DDB7B87
:102EB000012B0BD0032B12D10094052320224FF4B9
:102EC000F0110EF05CFD0025FEF7ACBF0094052369
:102ED000002226490EF053FD0025FEF7A3BF009403
:102EE000052300224FF440210EF049FD0025FEF796
:102EF00099BF002504F8015B009404232A46702141
:102F00000EF03DFDFEF78EBF002C00F0A0850122E3
:102F100064210EF03EFD20600025FEF783BF002CEB
:102F200000F09885002264210EF033FD206000251A
:102F3000FEF778BF3000010004000F0008000F000A
:102F40000C000F0010000F0014000F0018000F00FD
:102F50001C000F0028000F00040006001A001100DA
:102F6000340018002C00180014000C002000180079
:102F7000036DDB7B012B0BD0032B12D100940523B7
:102F800028224FF4F0110EF0FAFC0025FEF74ABF9C
:102F9000009405230022D3490EF0F1FC0025FEF732
:102FA00041BF009405230022CF490EF0E8FC002524
:102FB000FEF738BF002C00F0508500221C210EF0D7
:102FC000E8FC20600025FEF72DBF002C00F04885AE
:102FD00025886768237A002B00F045853C4607EB7F
:102FE000830729463046FDF7D1FC44F8040B013530
:102FF000ADB2BC42F5D10025FEF714BF002C00F0A5
:1030000035852378012228210FF090F80025FEF75E
:1030100009BFFEF7B1FA0546FEF704BF1146FEF7F9
:1030200077FB0546FEF7FEBE002C00F02285A57852
:103030000121FDF795FC00213046FEF771F830467E
:10304000FEF7A2F805F03F030022A84930460FF032
:103050006DF801230093FF230022A54930460FF0AD
:10306000D9F9A34F00252A46394630460EF0B9FC5F
:1030700010F0010FF7D100229E4930460EF09FFC60
:1030800005463046FDF79EFF00213046FDF7A4FFC0
:1030900005213046FDF764FCC5F30B0525800025AE
:1030A000FEF7C0BE0221FEF709FA01213046FEF705
:1030B00005FA32244FF0140800274425404611F049
:1030C000DFF83A46294630460EF08BFC10F0020F2E
:1030D00005D1631E13F0FF04F0D1012500E00025A7
:1030E0006D42FEF79FBE002C00F0C68423781B03C0
:1030F00003F4E0436278012A08BF43F4807300932D
:103100006FF4E24300227C490FF0DDF80025FEF762
:1031100089BE002C00F0B384626821680FF0F7F8D4
:103120000025FEF77FBE002C00F0AC84238800222F
:1031300072490FF01AF80025FEF774BE002C00F05B
:10314000A48462682188FEF713FB0025FEF76ABE9F
:10315000002C00F09D84657823788BB1036D0022EC
:10316000DA734FF0FF330822E5B123F48063009255
:103170000022102130460FF0A6F80025FEF752BEBF
:10318000036D0122DA73182300225D490FF022F843
:10319000E82300225B4930460FF01CF86FF008036B
:1031A0000022E1E742F48062E1E7002C00F0738442
:1031B0002368002230210FF00DF80025FEF732BE03
:1031C000002C00F06B84002229460EF0E2FB206008
:1031D0000025FEF727BE2346002229460EF0FAFFFF
:1031E0000025FEF71FBE002C00F05B840322464939
:1031F0000EF0F7FBC0F3021020700025FEF712BEA0
:10320000002C00F051842368002244210EF0E2FFDC
:103210000025FEF707BE002C00F049842388002219
:1032200048210EF0A2FF0025FEF7FCBD002C00F0A7
:103230004184002244210EF0ACFB20600025FEF703
:10324000F1BD002C00F03984002248210EF0B7FBBC
:1032500020600025FEF7E6BD002C00F031842378C5
:1032600000222A490EF062FF0025FEF7DBBD002C8C
:1032700000F02984002244210EF0B3FB20700025C9
:10328000FEF7D0BD002C00F02184FDF717FB206075
:103290000025FEF7C7BD002C00F01B8400221C494E
:1032A0000EF08DFB20800025FEF7BCBD002C00F049
:1032B0001384002217490EF06CFB20600025FEF7F6
:1032C000B1BD002C00F00B842388C3F30D030093E1
:1032D0004FF4404300220F490FF0E3F80025FEF7BA
:1032E000A1BD00BF2800180008000C001C0007004A
:1032F0001000080014000800140007000800050072
:103300000C001F0010001F006000030024000100DB
:103310002C0005001A000E00002C00F0E383A788A3
:10332000A3680993217B0691226904926269059240
:1033300003F00302C3F38500052942D1B7F5B17F3D
:1033400028BF4FF4B177DFF8E092042F05D809EBDE
:1033500000035B78053B9F423BDB012A77D8AE4BED
:10336000995C3E46B94274DA551C53FA85F5002340
:103370000B449BB20132D2B2022A05D015F8011BD0
:10338000A6EB030C6145F3DB9F4208BF039064D0BA
:1033900007F105081FFA88F880250021079103919D
:1033A00008910E464FF0050BBE465F4538BFDE461E
:1033B000AEF1050E1FFA8EFEDFF85CA2BC460F468A
:1033C000DDE340F231139F4228BF1F46DFF85C92D5
:1033D000BBE70023059A1380049A1146099A0A60F4
:1033E0004AE00023059A1380049B1A46099B136048
:1033F0004FF0FF3340E01FFA81FB079203900893E0
:103400000127CDE3002F40F0A183984500F2A3836C
:10341000002E38D03F2800F0C883002719F800108C
:103420005B1A9BB2461E06F03F0016F03F0618BF1F
:1034300001269CE30699092940F0BD833F210391B1
:103440000BE0B3B20132D2B23F21039105E0002379
:103450009AE7002398E70390634605990B80039B46
:1034600042EA8302D2B2130443EA0263134343EAFB
:103470000223049A1360002323600025FEF7D2BCC8
:10348000079A089BE9E70390E7E7079A089BE4E7B8
:103490003F210391E1E7002C00F027832578626843
:1034A000012A15BF6FF460336FF4E043DF27EF2785
:1034B00014BF4FF020084FF010080024009422465B
:1034C0004FF4A0210EF0FFFE00943B4622465349E4
:1034D00030460EF09FFF012D03D065B10025FEF7A9
:1034E000A1BC254600943B4622464D4930460EF08D
:1034F00091FFFEF797BCCDF80080FF2300224849DA
:1035000030460EF087FFFEF78DBC002C00F0F082F5
:10351000227812F0010F2DD0570107F04007402408
:103520004FF4E01312F0040F28D043F4600344F08A
:103530008004120102F0800217434FF4001200923F
:10354000DB4300224FF4A02130460EF0BCFEE443E2
:10355000A4B20025009523462A46304930460EF095
:10356000A0FF009723462A462D4930460EF099FFCA
:10357000FEF758BC00273C463B46D3E70022DEE777
:1035800008230093FF2301224FF480210EF042FF15
:10359000244C02230093FF230322214630460EF0E1
:1035A00039FF00250095F72301224FF48021304692
:1035B0000EF030FF0095FD230322214630460EF029
:1035C00029FFFEF72FBC002C00F095826388DB00FA
:1035D00003F4FF6322780AB143F4006300934FF2CF
:1035E000070300224FF4802130460EF05AFF0025D9
:1035F000FEF718BC002C00F0818223789A1C01236E
:103600009340013BDBB200224FF400310EF08EFDFF
:103610000025FEF707BC00BF3C690100080005005B
:103620000C00050008001100BC680100FC680100E6
:10363000002C00F06682E37A002B00F06582637B49
:10364000012B21D9227BD74B33F812201201D30A48
:10365000C2F30A0202F58062B2F5006F28BF01339F
:103660009BB203F07F0300934FF680730222CE4992
:1036700030460EF016FF94230022CC4930460EF05F
:1036800055FD0025FEF7CEBB227BC64B33F812302A
:103690004FF4356202FB03F2930CC2F3CA1202F537
:1036A0008062B2F5006F28BF01339BB2D9E7002CCE
:1036B00000F02D820022BE490EF06BF9206000253B
:1036C000FEF7B0BB002C00F025820022B9490EF0B5
:1036D00060F920600025FEF7A5BB002C00F01D82DC
:1036E0004FF4A81323600025FEF79CBB002C00F0CC
:1036F000178200250B9510AF192347F8103D00974E
:1037000004232A46AC490EF006FD41F648730C939B
:10371000009704232A46A94930460EF0FCFC0BAB67
:10372000009304232A464FF4E81130460EF027F99F
:103730000B9B2360FEF776BB002C00F0F481002287
:103740009F490EF026F980B2206000229D49304644
:103750000EF01FF9430D9B019BB263600025FEF73D
:1037600061BB002C00F0E281637D2BB1012B37D0CF
:10377000022B5ED0FF232FE0002293490EF009F9BF
:10378000C0F30B0020600022904930460EF001F992
:10379000C0F31500606000228D4930460EF0F9F844
:1037A000C0F31500A06000228A4930460EF0F1F8FF
:1037B000C0F31500E0600022874930460EF0E9F8BA
:1037C000C0F3100020610322794930460EF009F958
:1037D000C0F3021020750023A3750025FEF722BB5D
:1037E00000227E490EF0D5F8C0F30B0020600022C5
:1037F0007B4930460EF0CDF8C0F315006060002222
:10380000784930460EF0C5F8C0F31500A0600022DC
:103810004FF4502130460EF0BCF8C0F31500E060C4
:103820000022714930460EF0B4F8C0F31300206155
:10383000C9E700226D490EF0ACF8C0F30B00206020
:1038400000226B4930460EF0A4F8C0F3150060600A
:103850000022684930460EF09CF8C0F31500A060C5
:103860000022654930460EF094F8C0F31500E06080
:103870000022624930460EF08CF8C0F3130020613C
:10388000A1E70025FEF7CEBA0025FEF7CBBA00254A
:10389000FEF7C8BA0025FEF7C5BA0025FEF7C2BA82
:1038A0000025FEF7BFBA0025FEF7BCBA0025FEF7DB
:1038B000B9BA0025FEF7B6BA0025FEF7B3BA00255F
:1038C000FEF7B0BA0025FEF7ADBA0025FEF7AABA9A
:1038D0000025FEF7A7BA0025FEF7A4BA0025FEF7DB
:1038E000A1BA0025FEF79EBA0025FEF79BBA002577
:1038F000FEF798BA0025FEF795BA0025FEF792BAB2
:103900000025FEF78FBA0025FEF78CBA0025FEF7DA
:1039100089BA0025FEF786BA0025FEF783BA00258E
:10392000FEF780BA0025FEF77DBA0025FEF77ABAC9
:103930000025FEF777BA0025FEF774BA0025FEF7DA
:1039400071BA0025FEF76EBA0025FEF76BBA0025A6
:10395000FEF768BA0025FEF765BA0025FEF762BAE1
:103960000025FEF75FBA0025FEF75CBA0025FEF7DA
:1039700059BA0025FEF756BA0025FEF753BA0025BE
:10398000FEF750BA0025FEF74DBA0025FEF74ABAF9
:103990000025FEF747BA0025FEF744BA0025FEF7DA
:1039A00041BA00BF7869010012000E0016000E0037
:1039B0006000030048000F0004001F0008001F0003
:1039C00048000C0028000C0058000C0030000C00CF
:1039D00034000C0038000C002C000C0020000D00FE
:1039E00064000C0068000C0060000C0068000D0012
:1039F00040000D0044000D0048000D003C000D008B
:103A00000025FEF70FBA0025FEF70CBA0025FEF7D9
:103A100009BA0025FEF706BA0025FEF703BA00250D
:103A2000FEF700BA0025FEF7FDB90025FEF7FAB94A
:103A30000025FEF7F7B90025FEF7F4B90025FEF7DB
:103A4000F1B90025FEF7EEB90025FEF7EBB9002528
:103A5000FEF7E8B90025FEF7E5B90025FEF7E2B963
:103A60000025FEF7DFB90025FEF7DCB90025FEF7DB
:103A7000D9B90025FEF7D6B90025FEF7D3B9002540
:103A8000FEF7D0B90025FEF7CDB90025FEF7CAB97B
:103A90000025FEF7C7B90025FEF7C4B90025FEF7DB
:103AA000C1B90025FEF7BEB90025FEF7BBB9002558
:103AB000FEF7B8B90025FEF7B5B90025FEF7B2B993
:103AC0000025FEF7AFB90025FEF7ACB90025FEF7DB
:103AD000A9B90025FEF7A6B90025FEF7A3B9002570
:103AE000FEF7A0B90025FEF79DB90025FEF79AB9AB
:103AF0000025FEF797B90025FEF794B90025FEF7DB
:103B000091B90025FEF78EB90025FEF78BB9002587
:103B1000FEF788B90025FEF785B90025FEF782B9C2
:103B20000025FEF77FB90025FEF77CB90025FEF7DA
:103B300079B999F811305A1ED2B2012A7FF601A83C
:103B40000222FEF788BF002F3FF462AC19F8001084
:103B50005B1A9BB281E43F2827D0002E7FF45EAC35
:103B6000013000F03F0019F800100B449BB29C4557
:103B70003FF471AC013D15F0FF053FF432AC9E45BA
:103B8000BFF440AC9845DED9ACEB030109B2002983
:103B9000B8BF494259457FF72EAC002F7FF470AC77
:103BA0003F28DAD1002F7FF470AC032A3FF470ACC9
:103BB000022A3FF43FAC1AF802105E1866457FF700
:103BC00040AC0B449BB20132D2B2002726E400BFC6
:103BD0002DE9F04105460E46036D002B5CD02C6D9F
:103BE0000023E37302226282A375E3752374A37238
:103BF000E37204212846FCF7C9FE07460521284642
:103C0000FCF7C4FE80460A212846FCF7BFFEC0F33D
:103C10000440207227B1B8F1000F01D0002840D134
:103C200020212846FCF7B2FE2F4B98420CBF0123FF
:103C30000023637216F0100F37D116F0200F3AD11F
:103C400016F0400F3DD116F0800F41D1E37A0BB949
:103C50008523E372A37A0BB97423A3721F2128462C
:103C6000FCF794FE60731E212846FCF78FFE10F0CF
:103C70003F0012BFA0732E23A373A37B00221B4916
:103C800028460EF053FA35212846FCF77FFE0346FE
:103C900020BB0020BDE8F0812C2009F0D5FA286572
:103CA0009DE72846FDF7CAFCBAE706212846FCF73F
:103CB0006DFE2060C1E707212846FCF767FE6060C3
:103CC000BEE708212846FCF761FE000CA072BAE7A7
:103CD00009212846FCF75AFEE072B7E700220449A2
:103CE00028460EF077FAD4E74002001014000900CD
:103CF00004000900F0B585B00446436B1968FFF76E
:103D000067FF064623681B69984703AB00221146EC
:103D10002046FDF7DDFF636B9B6A19682046FDF7BF
:103D2000ADFD636B9B6A59682046FDF795FB636B9D
:103D30009B6ADB8900224FF4602120460EF015FAC1
:103D4000636B9B6A9B890022524920460EF00DFA54
:103D500000212046FDF734F8002500954FF6FF536B
:103D60002A46102120460EF09CFB636B9B6A5A8901
:103D7000198920460EF062FB636B9B6A1B8A022244
:103D80000C2120460EF0F1F9636B9B6A5B8A2A4690
:103D90000C2120460EF0E9F9636B197A2046FDF7F5
:103DA00069FC636BD9682046FDF720F8616B0B7ED8
:103DB0004A69096920460EF0C8FA636B9A7F998BAD
:103DC0002046FCF74DFE226D937B2E2B05D0636BB6
:103DD00093F82C3033F03F030AD0636B93F82C3008
:103DE00003F03F03937300222B4920460EF09EF907
:103DF000636B93F82D102046FDF7B6FA636B196AD2
:103E00002046FDF715F8636B596A2046FDF734F834
:103E1000636B93F82E30A3BB636B93F82F1020468F
:103E20000EF090F994F94C50002D27DB012303FA92
:103E300005F5AFB24FF09072394620460EF067FAA2
:103E40000DF10A030093022300224FF4A021204623
:103E50000DF095FDBDF80A3023EA0503ADF80A30F0
:103E600000220E4920460EF080F994F94D20B2FA56
:103E700082F2520939462046FDF77AFC304605B0F9
:103E8000F0BD01230093FF230022054920460EF0D8
:103E9000C1FAC1E704000100140009000800050090
:103EA000040002009829024818BF0020704700BF94
:103EB000806A010000B583B0036D9B7B012B0BD0A2
:103EC000032B10D10091052304224FF4F0110EF0C2
:103ED00080FB03B05DF804FB009105230022054937
:103EE0000EF077FBF5E700910523002260210EF02C
:103EF00070FBEEE70400180008B5012902D005297F
:103F000007D008BD41F62203002205490EF060FFEC
:103F1000F7E74FF40073002201490EF059FFF0E774
:103F20000400110070B504460E460C4D012300221A
:103F300029460EF04DFF33460022094920460EF077
:103F400047FF02230022294620460EF041FF0022AF
:103F5000044920460EF047FB70BD00BF08000B006F
:103F600004000B0010000B0038B505460C460B682A
:103F700000220B490EF04FFF6368002209492846D2
:103F80000EF049FFA3680022074928460EF043FFC0
:103F9000E3680022054928460EF03DFF38BD00BF0A
:103FA0000C000200100002001400020018000200C1
:103FB00038B505460C460B6800220B490EF02BFF66
:103FC00063680022094928460EF025FFA3680022F5
:103FD000074928460EF01FFFE368002205492846DE
:103FE0000EF019FF38BD00BF1C00020020000200C7
:103FF00024000200280002002DE9F04704460529AC
:104000003AD0234D2E46234FDFF8C480DFF8C4900A
:10401000DFF8C4A0204B0022204920460EF0FBFE12
:10402000534600221E4920460EF0F5FE4B46002264
:104030001C4920460EF0EFFE434600221A49204656
:104040000EF0E9FE3B460022184920460EF0E3FE42
:1040500033460022164920460EF0DDFE2B46002294
:10406000144920460EF0D7FE134B00221349204678
:104070000EF0D1FEBDE8F087114D124E124FDFF861
:104080005C80DFF85C90DFF85CA0104BC3E700BFFA
:10409000B5AF02007DAF0200FEA8020038000300A9
:1040A0003C000300400003004400030048000300FC
:1040B0004C00030050000300400200101C000300ED
:1040C000F5CF0100B5CF010036CF0100FDC00100E2
:1040D0003EAF0200FEA5020036AC02007EC7010022
:1040E000BEC601003EC4010008B500231A460249BD
:1040F0000EF091FE08BD00BF0400070038B504466D
:104100000D4600231A460A490EF085FE00231A4682
:104110004FF4E02120460EF07EFE05B938BD4FF089
:10412000E0530022034920460EF075FEF6E700BF7B
:104130004800070014000700F0B583B0046DA47BAD
:10414000032C0CBF4FF4981C4FF4901C9C18B4F532
:10415000806F19DA1D4616460F4604467F2B15D987
:104160004FEA1C4300220D490EF055FE2B4600225B
:104170000B4920460EF04FFE0097334600224FF4C5
:10418000E81120460EF025FA03B0F0BD0091134669
:104190002A4661460EF01DFAF6E700BF04001F0034
:1041A00008001F0010B50446036D9B7B012B13D044
:1041B000032B1DD1F023002212490EF09BFE00229A
:1041C0004FF4F01120460EF024FA236DDA7AA2B1F2
:1041D000C0F30900D88310BD0F23002209490EF057
:1041E00089FE00224FF4C01120460EF012FAECE7CF
:1041F00000224C210EF00DFAE7E700F07F00D88393
:10420000E9E700BF1800010010B50446036D9B7B71
:10421000012B04D0236D9B7B032B06D010BD0F23F5
:10422000002205490EF066FEF4E7F0230022024961
:1042300020460EF05FFEF1E71800010038B5044695
:1042400000231A464FF420210EF0C2FD00231A4627
:10425000084920460EF04EFE074D00231A46294617
:1042600020460EF047FE02230022294620460EF08B
:1042700041FE38BD14000A0004000A0038B50446A7
:104280000B4600220A490EF0A3FD0A4D88230022A6
:10429000294620460EF02EFE00231A4629462046C7
:1042A0000EF028FE0022044920460EF0C4F938BD65
:1042B0000C000A0004000A0008000A0070B5044659
:1042C0000B461546B1F5807F34BF0026202600221C
:1042D0000B490EF07DFD2B4600220A4920460EF0C8
:1042E00009FE094D46F090030022294620460EF0B3
:1042F00001FE00231A46294620460EF0FBFD70BD44
:104300000C000A0010000A0004000A0070B5044600
:104310000D461646002240F20B11FFF7CFFF4FF477
:1043200082712046FFF7AAFF00F01F024FF482714E
:104330002046FFF7C3FF236D1A8A15431D82236DA4
:104340001B8A00224FF4202120460EF041FD334607
:104350000022024920460EF0CDFD70BD14000A0077
:10436000F0B583B05C18B4F5806F24DA1C461746AC
:104370000E4605467F2B15D9142300220F490EF057
:104380004AFD234600220E4928460EF044FD0097C0
:10439000334600224FF4E81128460EF00EFD0020AF
:1043A00003B0F0BD00920B4622464FF4A0110EF070
:1043B00004FD0020F4E74FF0FF30F1E704001F0098
:1043C00008001F002DE9F041044600224FF4F811C7
:1043D0000EF031F905460022442120460EF003F983
:1043E0000646236D0022DA8383F820209A619A839F
:1043F0005A62236D5C62236D9F7B002F7FD1236DFA
:104400009E61D4F8508098F8153003F00303032B15
:1044100000F0908015F0800F40F0938015F0010FB0
:1044200040F0C18015F0400F0BD0636A13B1206DCE
:10443000183098474FF4C0730222442120460EF0F2
:10444000C7FC15F0080F07D1236D9B7B002B00F0F4
:10445000EA80002F00F0E780236D002283F82020FF
:1044600016F4802F00F0AD80226D92F8203043F0DA
:10447000080382F820304FF4802716F0805F08D0C0
:10448000226D92F8203043F0100382F8203047F07C
:10449000805716F4005F06D0226D537D03F00303AE
:1044A000032B00F09A8016F4804F40F0A28047F46E
:1044B000DE430022442120460EF0ADFC2046FFF7EB
:1044C000A3FE206DC38B002B40F0A280437D03F040
:1044D0000303032B00F09C80836923F490438361E2
:1044E000226D936943F480539361E36913B1206DA6
:1044F00018309847236D002283F820208CE06D4906
:1045000020460EF098F80746236D9B7B032B08BFCF
:10451000C0F3071717F0010F18BF46F4804617F0D5
:10452000020F18BF46F4005617F0040F18BF46F4E8
:10453000806664E716F4005F1CBF45F00805EDB225
:1045400068E70022482120460EF063F8A8F81C0016
:10455000236D1A7D1AB19A6912F0040F03D19B8B57
:1045600003F460638BB104230022442120460EF043
:10457000C1FC4FF460630022482120460EF028FC65
:10458000236A13B1206D18309847236D9B8B13F469
:10459000807F3FF443AF4FF48073002248212046D0
:1045A0000EF016FC3AE7F8230022442120460EF0D4
:1045B000A1FC2369002B3FF435AF206D18309847DC
:1045C00030E716F4806F1FBF226D92F8203043F061
:1045D000040382F8203000274FE792F8203043F0A0
:1045E000020382F82030236D0022DA8347F400476B
:1045F0005DE72046FFF7D6FD10F4004F3FF457AFBC
:10460000226D92F8203043F0010382F820304EE70B
:1046100063690BB118309847236D9B7B03BB236DF7
:10462000002283F8202015F0100F1DD115F0200F67
:104630002DD10022204920460DF0FDFF236D83F887
:10464000210010F0030309D000221B4920460EF080
:1046500051FCA36A13B1206D18309847BDE8F08172
:1046600020460EF066FCDAE7144B00224421204677
:104670000EF0D1FB2046FFF7C7FDE36913B1206DB3
:1046800018309847236D002283F82020CEE70C4B8A
:104690000022442120460EF0BEFB2046FFF7B4FD69
:1046A000A36913B1206D18309847236D002283F859
:1046B0002020BEE7180001003800110000B40534C6
:1046C0000004221070B582B004460E46134D4FF020
:1046D000082300934FF0FF33002229460EF03DFCE3
:1046E0004FF0601300934FF0FF330022294620461D
:1046F0000EF033FC0A4B00934FF0FF3300224FF4CF
:10470000E02120460EF029FC0EB902B070BD054B29
:104710000022054920460EF07EFBF6E74800070020
:10472000003C0002001101011400070000B583B035
:10473000054B00934FF0FF33002204490EF00DFCAF
:1047400003B05DF804FB00BF003C0002040007005A
:104750002DE9F04383B004460D461746564E00221D
:1047600031460DF040FF81464FF4704300934FF007
:10477000FF330022314620460EF0EFFBDFF83C818C
:1047800018230022414620460EF022FB2521204618
:104790000EF02EFB022120460EF02AFB4FF4FE7194
:1047A00020460EF025FBF9B241F4807120460EF050
:1047B0001FFB4FF4807120460EF01AFB00212046AB
:1047C0000EF016FB022120460EF012FB4FF4E071B2
:1047D00020460EF00DFBE9B241F4807120460EF048
:1047E00007FBC5F3072141F4807120460EF000FB62
:1047F000C5F3074141F4807120460EF0F9FA290E05
:1048000041F4807120460EF0F3FA002120460EF0AC
:10481000EFFA3A2120460EF0EBFA40F2FF11204663
:104820000EF0E6FA4FF4857120460EF0E1FA002111
:1048300020460EF0DDFA3A2120460EF0D9FA40F279
:10484000011120460EF0D4FA022300224FF4302149
:1048500020460EF0BDFA00231A464FF430212046C0
:104860000EF0B6FA02200FF0F8FC3A2120460EF0C6
:10487000BFFA4FF4817120460EF0BAFA02230022EB
:104880004FF4302120460EF0A3FA00231A464FF4CD
:10489000302120460EF09CFA00231A46414620465D
:1048A0000EF096FA4B460022314620460EF0B3FA3F
:1048B00003B0BDE8F08300BF4400070008000B0010
:1048C00010B582B004467F2A12D9803241EAC32152
:1048D00041EA024100910C4B002220210EF03DFBE9
:1048E00000224FF4002120460DF0A5FE02B010BDBD
:1048F00041EAC32141EA02410091034B00222021F9
:104900000EF02BFBF2E700BF00F400FC30B583B0E3
:1049100004460D4611F0010F15D000230093EF233C
:1049200002224FF460210EF066FB236D9D75236D0E
:104930009B7D5B0810D06B0800220E4920460EF0CC
:10494000D9FA03B030BD10230093FF2302224FF4A5
:1049500060210EF050FBE8E701230093FF230022C3
:10496000044920460EF047FB226D937D43F002037D
:104970009375E6E72000010070B582B004460D464D
:104980000121FFF7B9FA00212046FFF79BFE2046E0
:10499000FFF7CCFEC5F30B030022154920460EF0AD
:1049A00017FA03230093FF230022124920460EF03A
:1049B00022FB104E00252A46314620460DF03BFED4
:1049C00010F0010FF7D12046FFF78EFB00212046A3
:1049D000FFF794FB05212046FFF78EFA00220649D7
:1049E00020460DF028FE00F03F0002B070BD00BF71
:1049F0001C000800100008001C00070038B5054620
:104A00000C46B1F8051049B1FFF7B6FFD4F80130F4
:104A10000022054928460EF0FEF938BD2378002211
:104A200002490EF067FAF1E7040001001C000700DC
:104A300030B583B004460D4610230093FF230022B7
:104A400006490EF0D8FA2B46022D38BF0223002269
:104A5000282120460EF0DFF903B030BD28000F00FA
:104A600030B583B0044601291DD002292FD001237F
:104A70000093FF23002225490EF0BDFA244D4FF488
:104A8000000300936FF480730022294620460EF045
:104A900064FA002300937F230222294620460EF069
:104AA000AAFA03B030BD0521FFF726FA02230093CE
:104AB0004FF0FF330022174920460EF04EFA012234
:104AC0000092FF23124920460EF095FAE9E70323EE
:104AD0000093FF2300220D490EF08DFA0C4D4FF488
:104AE000000300936FF480730022294620460EF0E5
:104AF00034FA002300937F230222294620460EF039
:104B00007AFA05212046FFF7F7F9CAE704001100F9
:104B100008001100080009002DE9F04182B00546A7
:104B2000294C2A4B002221460EF075F910230093E0
:104B3000FF230022214628460EF05DFA03244FF0A1
:104B40001408234F002640460FF09AFB32463946A0
:104B500028460DF070FD012834D0631E13F0FF04C9
:104B6000F1D16FF00204184E00231A463146284650
:104B70000EF0C0F901230022154928460EF0BAF9BB
:104B800001230093FF230222314628460EF033FA18
:104B90000022104928460DF026FD6FF06043984230
:104BA00008BF6FF0030400220B4928460DF01BFDDF
:104BB0006FF06043984214BF20466FF0040002B0CB
:104BC000BDE8F0810024CEE70C00040001000200E3
:104BD00020000400140004001C00040030B583B061
:104BE000044611F0010F1FD00D464FF410730093CF
:104BF0006FF47C6300224FF4A0210EF0AEF94FF465
:104C0000040300934FF0FF330022184920460EF0B2
:104C1000A4F915F0020F1AD14FF488730022144939
:104C200020460EF0F8F810E0002500956FF47C6344
:104C30002A464FF4A0210EF090F900954FF6FF633D
:104C40002A460B4920460EF089FA03B030BD084DC4
:104C5000084B0022294620460EF0DDF84FF48873F9
:104C60000022294620460EF0D6F8EEE70400110097
:104C70001800110010010F00F0B583B0044601299F
:104C800009D014200FF0FCFA2046FFF745FF054637
:104C9000284603B0F0BD0F4E002231460DF0B9FC9E
:104CA000074640F2071300934FF6FF730022314688
:104CB00020460EF053FA14200FF0E2FA2046FFF7D8
:104CC0002BFF0546002200923B46314620460EF05F
:104CD00045FADDE74800070000B583B0012A09D096
:104CE000CB43002200929BB206490EF037FA03B084
:104CF0005DF804FB00914FF6FF73002201490EF0AE
:104D00002DFAF4E70C000500F0B583B004460F4619
:104D100016461D4648F2400300934FF6FF730022EB
:104D200018490EF01BFAAA1943F201039A4215DC46
:104D30007F2D1DD915230022134920460EF06BF854
:104D40002B460022114920460EF065F800973346A5
:104D500000224FF4E81120460DF03BFC00220092A7
:104D600047F6BF73074920460EF0F8F903B0F0BDCF
:104D7000009733462A464FF4A81120460DF029FC2F
:104D8000ECE700BF0400110004001F0008001F0032
:104D900070B506460C4615460E4B02220E490EF023
:104DA0003AF80F2DA8BF0F25631E032B28BF04243C
:104DB000102323410022094930460EF02CF8631ECF
:104DC0009B0005FA03F30022054930460EF023F854
:104DD00070BD00BF7408D200100011002800070049
:104DE000180008002DE9F04F83B004460D4691F8F5
:104DF00000900B79182B14D8CF78182F94BF002768
:104E00000127FFB2EB79012B0CBF102100216B7839
:104E1000013B062B10D8DFE803F0060F0F120C0F32
:104E200009000127EDE74FF0400A0AE04FF0480A79
:104E300007E04FF0800A04E04FF4807A01E04FF081
:104E4000200A226D138A23F0E0031382236DEA798E
:104E5000DA722E7BB31C01269E401FFA86F8226D63
:104E6000C74B03FB08F3DB0B5382236DEA7A5A75B9
:104E70002B7A5B0103F020036A7B43EA0243EA7A60
:104E8000120302F4304213430B430093BD4B002244
:104E9000102120460EF061F8002F40F00681EB7AD9
:104EA000F3B16B7B012B40F22B812A7BB64B33F89D
:104EB00012201201D30AC2F30A0202F58062B2F58F
:104EC000006F28BF01339BB20AEBC80A03F07F03CF
:104ED00000934FF680730222AC4920460EF03EF953
:104EE00094230093AA4B0022AA4920460EF035F8DD
:104EF000BAF1FF0F40F31781226D138A43F02003AC
:104F000013824FF4006300934CF6FF730022A24912
:104F100020460EF023F94FF4005300934DF6FF7333
:104F200000229E4920460EF019F96B7B012B00F000
:104F30000581AB7843F010030093FC2300224FF46B
:104F4000C02120460EF057F8731EDBB200224FF44A
:104F5000003120460DF0CEFF6B78072B0CBF0823E5
:104F600000230122242120460DF0C4FFEB7A03F038
:104F70000303032B0CBF8A4B8A4B00228A4920462D
:104F80000DF049FF0022894920460DF02CFB20F44A
:104F9000FF5020F01F00B9F1090F08BF40F00100D9
:104FA0002A79120202F4F852EB78DB00DBB21A43E2
:104FB0006B795B0003F006031343034300227B4934
:104FC00020460DF028FFAA796B781B0343EA822361
:104FD00000936FF474430022202120460DF0BDFFA2
:104FE000B5F8093023B96FF07E036B720023AB7202
:104FF000B5F8093002224FF4C02120460DF0E8FE3A
:1050000002226B4920460DF016FB236DDB7B4B45DE
:1050100000F09E80032800F09F80B9F1090F00F096
:10502000A080644B0022644920460DF0F4FE41F656
:105030003C7300224FF4102120460DF0C9FE1423CA
:1050400001225E4920460DF055FF0E2302225C49E5
:1050500020460DF04FFF812300225A4920460DF0D3
:1050600049FF02230022442120460DF043FF012185
:105070002046FFF7F5FC4FF0320B4FF014080027E5
:10508000442640460FF0FCF83A46314620460DF0E3
:10509000D2FA10F0020F40F0B5800BF1FF3313F09D
:1050A000FF0BEED16FF00100DEE0226D138A43F0BA
:1050B000600313824FF4C05300936FF440530022F7
:1050C000354920460DF049FF40F2063300223349AE
:1050D00020460DF0A0FE00231A463B4920460DF065
:1050E0009AFE3A4B0022294920460DF094FE9D235A
:1050F0000093274B0022274920460DF02EFF0AE798
:105100002A7B214B33F812304FF4356202FB03F255
:10511000930CC2F3CA1202F58062B2F5006F28BF89
:1051200001339BB2D0E64FF4205300934CF6FF734B
:105130000022194920460EF011F8ECE6AB780093F6
:10514000EC2300224FF4C02120460DF054FFFBE673
:1051500003287FF462AF58E002212046FFF780FC6D
:105160005BE71B4B0022144920460DF054FE40F62D
:105170003C7300224FF4102120460DF029FE5EE71B
:1051800068660200CF4FFCFF886A010014000E0021
:1051900000FFFF3F18000E0008000B000C000E007F
:1051A000CC355FAF4C585FAF0C0006000800010023
:1051B00030000F003411071C1C00070050000700CE
:1051C000180007000800090010000E000A5A0C0021
:1051D0003400011C4FF4807300934FF6FF730022DC
:1051E000234920460DF0BAFF226D138A43F00803CD
:1051F00013821CE000220092FE231E4920460DF07F
:10520000FAFE1EE0236D83F80F902B79093BDBB289
:105210000F2BEFD8236D1B7A012BDBD0494620469C
:10522000FEF7EAFE226D138A23F0080313824FF47F
:10523000C843009348F2FF1300220E4920460DF0A8
:105240008DFFBAF1400FCCBF4FF000534FF0A05389
:1052500000936FF07F430022074920460DF07DFE4A
:1052600001212046FFF708FD03B0BDE8F08F00BF25
:1052700008000B001800030010000600F0B583B012
:1052800005460E46036D002B51D02C6D0023A373F1
:105290000222228223756375E3736372A372042171
:1052A0002846FEF73FFE074605212846FEF73AFE50
:1052B0000FB1002840D120212846FEF733FE354BA0
:1052C00098420CBF01230023237216F0100F42D125
:1052D00016F0200F45D116F0400F48D116F0800F80
:1052E0004CD1A37A0BB98523A372637A0BB97423CB
:1052F00063721F212846FEF715FE20731E212846E3
:10530000FEF710FE10F03F0012BF60732E23637390
:10531000637B0022204928460DF0ECFD352128460C
:10532000FEF700FE034678BB002003B0F0BD282046
:1053300007F08AFF2865A8E74FF4007300934FF643
:10534000FF730022154928460DF008FF238A43F019
:1053500010032382AFE706212846FEF7E3FD206015
:10536000B6E707212846FEF7DDFD6060B3E70821B8
:105370002846FEF7D7FD000C6072AFE709212846EA
:10538000FEF7D0FDA072ACE70022054928460DF0DB
:1053900042FDC9E7400200101400090008000B009C
:1053A000040009002DE9F04F91B0064615461C4651
:1053B0009C2900F29F80DFE811F0540A5F0AA300E5
:1053C000A700C0004C0192016F015601A201AD017E
:1053D000B501BD01C501CD01D501D901E1017202BF
:1053E000800285028F0294029902A202A702DD02C6
:1053F000FA02050310031A03520348033E03240371
:1054000031038103FC012F023D02450259027D094F
:10541000820961039F03A303AC03B103DB03E5032C
:10542000ED03170423042E045703390442045404E3
:105430006D047E04C004CA04F004FF041A050805C4
:1054400024056A058205A205D105E505EE050A06D3
:10545000F70543078507D307D907E407FD071D08AC
:10546000270831085F0868086E08770884089108E3
:105470009B08A408AD08B808C308C908EC08F708D9
:1054800002090D094E09590972098809FD09070A1F
:10549000120A670A1C0A490A7707C609E709D50AEA
:1054A000CA0A740A7F0A8A0A950AA00AAB0AB60ACF
:1054B000BF0AB50CEF0C2A0D4D0DF90D0E0EFD0AAD
:1054C000C10BF40BFF0B040C090C140C270C320C51
:1054D000470C5C0C980C9D009D009D009D009D005C
:1054E0009D009D009D00640D750DC20EBF0DB40D95
:1054F000D30DCA0D4FF0FF35284611B0BDE8F08F2F
:10550000436898470025F7E70222B4490DF093F865
:10551000032801D80025EFE70EF098FE0446022389
:105520000193002500952B462A46294630460CF06B
:10553000D2FF20460EF08FFEDEE7002C01F002863F
:10554000247814F01D0F61D014F0010F23D014F053
:10555000020F4FF0020301934FF000020092134636
:1055600014BF0D2103210CF0B6FF03224421304665
:105570000DF061F810F0080F08BF0025BCD0022321
:105580000193002100910B460A4630460CF0A3FF20
:105590004FF0FF35B0E714F0080F11D114F0100FE1
:1055A00021D114F0020F4FF0020301934FF00002DB
:1055B0000092134614BF102109210CF08CFFD4E790
:1055C00000210DF03DFC14F0020F4FF00203019397
:1055D0004FF000020092134614BF0F2107213046FE
:1055E0000CF079FFC1E701210DF02AFC14F0020F45
:1055F0004FF0020301934FF000020092134614BFD4
:105600000E21052130460CF066FFAEE714F0200FA6
:105610000FD014F0020F4FF0020301934FF000057A
:1056200000952B462A4614BF11210B210CF053FF85
:1056300062E714F0020F4FF0020301934FF00005F0
:1056400000952B462A4614BF0C2101210CF043FF84
:1056500052E7002C01F079852368002228210DF003
:10566000DAFB002548E7236800225D490DF0D3FBF3
:10567000636800225B4930460DF0CDFBA368002231
:10568000594930460DF0C7FBE368002257493046C0
:105690000DF0C1FB00252FE7002C01F05985238870
:1056A0006568032D01F25785DFE805F002070D1349
:1056B00000224F490DF08CFB1EE702224C490DF0F1
:1056C00087FB002518E700224A490DF081FB0025E1
:1056D00012E7022247490DF07BFB00250CE7002C66
:1056E00001F03C8523785B0003F0060300936FF024
:1056F0000603002240490DF030FC0025FCE64FF483
:10570000803300934FF0FF3300223C490DF025FC1D
:105710000025F1E6002C01F02485036D1B7B23702E
:105720000025E9E6002C01F01F85036D5B7A2370EC
:105730000025E1E6002C01F01A85036D9B7A2370A9
:105740000025D9E6002C01F01585036D1B68236048
:105750000025D1E6002C01F01085036D5B68236005
:105760000025C9E60DF0E5FB0025C5E6002C01F09B
:10577000078521680DF08AFB0025BDE6002C01F0AD
:10578000028525785DB1646840230093FF230022E1
:1057900010210DF030FC022D07D1F46005E000224D
:1057A0000092BF2310210DF026FC336D1D750025DE
:1057B000A2E6002C01F0EA846568237803224FF406
:1057C00080310DF097FBDDB9002200924FF2FF739C
:1057D000102130460DF0C2FC8EE600BF30000F00F5
:1057E00054000100580001005C000100600001004D
:1057F0000C0001001000010008000100040011006D
:105800004FF4812300934FF0FF33002210213046E4
:105810000DF0A3FB00256FE6002211460CF0E3FE1D
:10582000B268136843405268134214BF4FF0FF350B
:10583000002561E6002C01F0AC842178FFF766F8C2
:10584000002559E63AB9002200924FF2FF73B84999
:105850000DF084FC50E64FF4006300934FF6FF73A5
:105860000022B3490DF07AFC002545E602F0010262
:105870004FF6FF734FF2FF71002A08BF0B46D202AA
:1058800015F0020F12BF42F4805223F480539BB2F2
:1058900000920022A6490DF061FC00252CE62AB9F1
:1058A000A44B0222A4490DF0B6FA25E6A34B02222E
:1058B000A1490DF0B0FA00251EE611460DF0FAFAE6
:1058C000002519E6002C01F0678400229C490CF0A9
:1058D000B2FE207000250FE62146FEF745FB0025AD
:1058E0000AE62146FEF764FB002505E60123009346
:1058F000FF23002293490DF07EFB0025FCE51146B5
:10590000FEF77AFB0025F7E5182300228E490DF0FB
:1059100082FAE82300228D4930460DF07CFA336D7F
:105920009B7D5B081AD00022894930460CF071FE3D
:10593000C0F3C403093B0F2B01F2318400F00100D6
:1059400000280CBF05210921336D1B7A012B01F0C2
:1059500029843046FEF750FB0025CDE501230022C7
:105960007C4930460DF0C6FA326D937D43F0020358
:105970009375D8E7002C01F018842478036D5C75CA
:10598000230303F43043009344F6FF7300221021F5
:105990000DF0E4FB04F00304032C0CBF6E4B6F4BC3
:1059A00000226F4930460DF036FA0025A4E5002CA0
:1059B00001F0FE83238800224FF460210DF008FAE5
:1059C000002599E5002C01F0F68300224FF46021B8
:1059D0000CF01FFE208000258EE5002C01F0EE83E8
:1059E000238800227C210DF0F3F9002584E5002CAA
:1059F00001F0E78300227C210CF00BFE20800025C3
:105A00007AE5002C01F0E083A388E2882168009108
:105A10004FF4B0110DF0D1F900256DE5002C01F027
:105A2000D683A388E288216800914FF4B0110CF06E
:105A3000D0FD002560E5002C01F0CC83E388A2882E
:105A40002168FEF779FB002556E5002C01F0C5839F
:105A5000E3882268A188FEF783FC00254CE5114607
:105A60000DF095FB002547E5002C01F0B983237963
:105A700062882188FEF724FF00253DE5002C01F017
:105A8000B283036D9B7B012B0CD0032B10D10C2216
:105A90004FF4F0110CF0BDFD00B240F30C03238075
:105AA000002529E500222F490CF0B3FD00B2F4E7F0
:105AB00000222D490CF0ADFD00B2EEE7002C01F004
:105AC00095830CAB00930323002228490CF081FD41
:105AD0009DF832209DF8313003EB02229DF83030E2
